:020000040800F2
:10000000480E0020C900000875150008E51000081A
:1000100000000000000000000000000000000000E0
:10002000000000000000000000000000CD1D0008DE
:100030000000000000000000CD150008592700084E
:10004000A72B000800000000F9000008F9000008D4
:10005000F9000008F9000008F9000008F90000089C
:1000600000000000F9000008F9000008F90000088D
:10007000F9000008F9000008F9000008000000007D
:10008000112800080000000000000000F90000082E
:10009000F9000008F9000008F9000008F90000085C
:1000A000F9000008F9000008F900000871280008AC
:1000B000912800080348854600F010FC00480047DE
:1000C000994C0008480E00200C4880F308880C4822
:1000D0000168090E0B4A914205D10B480B4901609A
:1000E0000B480C4901600C4880470C480047FEE76C
:1000F000FEE7FEE7FEE7FEE7FEE70000480E002011
:10010000040000001F000000181002400100000061
:10011000000001400000000061270008B500000851
:1001200030B50B46014600202022012409E00D468F
:10013000D5409D4205D31D469540491B2546954017
:1001400040191546521E002DF1DC30BD70B500245B
:100150002546002801DA01244042002901DA012560
:100160004942FFF7DDFFAC4200D04042002C00D0F6
:10017000494270BDF0B51FB40646002082B0054666
:100180004024019100901BE0019922460F46304621
:1001900000F0E8FA049A059B801A994110D31046A2
:1001A0001946224600F0CEFA361A8F4101972246B0
:1001B00001200021009F00F0C5FA38184D41009041
:1001C0002046641E0028DFDC019B00982946324649
:1001D00007B0F0BD03460B439B0703D009E008C9F5
:1001E000121F08C0042AFAD203E00B780370401CE7
:1001F000491C521EF9D27047D2B201E00270401C75
:10020000491EFBD270470022F6E710B513460A4696
:1002100004461946FFF7F0FF204610BD30B50546ED
:100220002A460B4610781C78521C5B1C002801D013
:10023000A042F7D0002C03D0002802D06D1CEFE7BD
:10024000284630BD10B5044605E00B780370401C0D
:10025000002B00D0491C521EF7D2204610BD421C74
:100260000178401C0029FBD1801A704710B500228C
:1002700000E0521C835C8C5CA34201D1002BF8D1BE
:10028000D8B2E1B2401A10BD30B505460020034691
:1002900000E05B1C934205D2EC5CC85C201A01D1E3
:1002A000002CF6D130BD70B5064602F09DFC046806
:1002B00005460A220021304600F078FA2C6070BD15
:1002C00070B5064602F090FC046805460A2200213B
:1002D000304600F06BFA2C6070BD0000F0B50746A8
:1002E0000846584087B0C00F049048000E46590099
:1002F00040084908BC1A884105D2384631461E4696
:1003000017460B4602465800400810434CD0300DAB
:10031000039040055900400D490D0590401A029088
:10032000402872DA18030121000B090508430190E7
:1003300004980092002805D001995242002088417B
:1003400000920190029840210A1A0199009800F049
:10035000F9F905460C466B4607CB00F014FAC019B4
:100360007141039A0E0D0023D71756401A467A4062
:10037000164344D0049A002A2DD0029A012A039AE7
:1003800015DC1205C01A914101263605001C714189
:10039000D20F059ED2070093019202962A46234669
:1003A00000F049FA07B0F0BD38463146FAE71605C5
:1003B000224A0F46B218C01AB74101210905001C94
:1003C0004F4100187F41114618187941E20F104340
:1003D0006D19644113E0E2076D0815436408C20714
:1003E0001443039A01261205C01A91413605001CD8
:1003F0007141CE07400830434908C01851412A4690
:10040000234600F00BFACDE7FFE7049801224000F5
:10041000C117121A00238B4104983146C417381AA9
:10042000A141EEE730B40124E407634030BC55E756
:1004300030B40124E407614030BC4FE70000E0FF26
:10044000F0B51FB488B00B99099800244840099969
:10045000C00F490049080991C0070B990090490055
:1004600049080B9109990898A64608431CD00B9996
:100470000A98084318D0099801244000420D48000A
:10048000410D099824050003000B204309900B98A7
:100490000003000B20430B9050181C494018002209
:1004A00001901446104605E0002001460DB0F0BD55
:1004B000032801DA034600E003239C46C11A0AAE72
:1004C0000AE05F0008ADED5B4F00F75B7D4300275E
:1004D000AA187C41491C5B1E6145F2DD410004AB5A
:1004E0005A522104120C0A43240C401C0828DFDB5A
:1004F000019802900099704601910090059B049A22
:100500000799069800F097F9D0E700000DFCFFFF6F
:10051000F0B50C465C4085B0E40FE40703944C0052
:100520000026640859009446490802460296224370
:1005300021D062460A431ED06200570D4A000E03C6
:100540002303550D012402462C492405781B1B0B5F
:10055000360B401823432643614600901C46501A30
:10056000B44103D30098401C009002E09218009818
:100570005B41002803DA0020014605B0F0BD0020F1
:10058000012109050746864611E064461D46141BF5
:10059000B54106D36546521BB341744607430C432D
:1005A000A646CD0740084908284392185B410546F6
:1005B0000D43EAD11046184313D060461946504007
:1005C0007140084306D06046101AB34106D201229A
:1005D000002306E000220123DB0702E00122D243D0
:1005E0005310009874460105381C6141029C039D1C
:1005F0000019694100F012F9BFE70000FD03000097
:1006000070B54B005B0803430BD04B005C0D00261C
:1006100033466542B341D417AD1AA34102DB002033
:10062000014670BD12053018514170BD0EB5C2179C
:10063000C10F5040CA0740180021054B0293019298
:1006400000910A460B4600F0F6F803B000BD00002A
:10065000330400000EB505490291002100910A46BD
:100660000B46019100F0E7F803B000BD3304000031
:1006700070B5CD0F4A0009030123090B1B0519436F
:100680000B4BED070024520D9A4201DA002070BD99
:10069000074B34339A4203DC9A1A00F063F802E005
:1006A0000449511888402C43F1D0404270BD0000ED
:1006B000FF030000CDFBFFFF4A0009030123090BE4
:1006C0001B051943094B10B5520D9A4201DA00205F
:1006D00010BD064B34339A4203DC9A1A00F042F8FC
:1006E00010BD03495118884010BD0000FF030000F1
:1006F000CDFBFFFF10B5002904DB0124E4074042D5
:100700008C412146002B04DB1C460123DB075242AF
:10071000A3418B4200D1824210BD000010B50029D8
:1007200004DB0124E40740428C412146002B04DB1A
:100730001C460123DB075242A341994200D190425B
:1007400010BD000010B5202A04DB0146203A91407C
:10075000002010BD914020239C1A0346E34019431A
:10076000904010BD10B5202A04DB0846203AD04046
:10077000002110BD0B46D340D0402024A21A914046
:100780000843194610BD10B5202A06DBCB170846D2
:10079000203A1041C1170B4306E00B461341D040ED
:1007A0002024A21A91400843194610BDF7B5009CB9
:1007B0000F4600262578641C002D05D000F0A0F817
:1007C0000068405DC007F5D12B2D02D02D2D18D02B
:1007D000641E39462046029A00F096F8002F04D095
:1007E0003968A14201D100993960710502240029BC
:1007F0000BDA4042002803DD02F0F6F90460A0079E
:10080000FEBD012080020643E3E70028F8DA02F08B
:10081000EBF904600048FEBDFFFFFF7F10B5002B21
:1008200008DA0024401C614192185B411A4301D14F
:100830004008400010BDF0B51FB482B005460C0062
:1008400003D0084602F0B8F902E002F0B5F9203012
:100850000246009021462846FFF774FF049B059A44
:1008600004460F4618431143084314D0184610435A
:100870001BD0009840210A1A18460599FFF772FF0D
:1008800005460E46009A05990498FFF75BFF08435A
:1008900005D0012004E02046394607B0F0BD002015
:1008A000C11705430E432C43374300990E98630547
:1008B000401A7905E40A00220C43FD0A0A3002D5E9
:1008C00000200146E9E70105101969410C9C0D9DC6
:1008D00000196941FFF7A2FFDFE70000064C012580
:1008E000064E05E0E36807CC2B430C3C98471034D8
:1008F000B442F7D3FFF7E2FBC05D0008E05D0008FB
:1009000000487047805B0008F7B582B0029C002762
:100910002078641C15460197302802D0002D15D090
:1009200015E020780127641C782804D0582802D0CC
:10093000002D09D00BE0002D01D0102D07D100278C
:1009400010252078641C02E0082500E00A25002616
:10095000009610E00099012769430818020C294607
:1009600080B2714300908E183804864201D3012072
:1009700001902078641C294600F019F80028E9DA73
:100980000398002805D0002F01D0641E00E0029CCF
:1009900004600198002806D002F026F902210160C7
:1009A000C81E05B0F0BD009930040843F9E73A28A5
:1009B00000D23038202302469A43412A01D3104600
:1009C0003738884201D30020C043704770B58C1877
:1009D0000578401C6B075B0F01D10378401C2A117E
:1009E00006D10278401C03E006780E70401C491CBA
:1009F0005B1EF9D12B0705D40023521E0DD40B70BA
:100A0000491CFAE70378401CCB1A921C03E01D78BE
:100A10000D70491C5B1C521EF9D5A142D8D3002091
:100A200070BD0000F0B50E46302148434D498FB0EF
:100A30004418A18B002000F04DFC20620025A58405
:100A40002046A17F283001F059FE474F6068B84228
:100A500004D10121880300F0E5FD06E04349884206
:100A600003D10121480400F0C5FD606801F03AFFA0
:100A70000121606900F0B2FDA27B217BA06800F03B
:100A80001CFBA27B617BA06800F017FB208A618AB7
:100A9000084300900221684601710321417185716C
:100AA000C5716946A06800F0CFFA0C200496059540
:100AB000069507950995089004A9606801F0B6FFAE
:100AC0004021606801F0F4FE01222949606801F0CC
:100AD00097FF60680121B84204D11B22684602706A
:100AE000457006E0214A904203D11C2268460270FC
:100AF00041706846817000F03FFD0121084600F01A
:100B00006DFD0121084600F08DFDA06900F05CF943
:100B10006068694624300090206A02950190A08B9D
:100B20000390802005900320049500030695079507
:100B300008950A950990A06900F0B6F90D490E488C
:100B400000F0D2F901224021606801F0C2FE0121CB
:100B5000A06900F02DF90121606801F0B0FE0FB02E
:100B6000F0BD000058000020003801400044004063
:100B700004010400000800200000024003B43021FA
:100B80004843074941184868C2691206FCD56A46BD
:100B9000127902854868C1690906FCD502B0704720
:100BA00058000020014670B530200A4642431748DD
:100BB00014186268D369928CA369A28B5B680025C4
:100BC000D21A92B2A284002A06D0002919D0204657
:100BD0002830216A01F020FDA18C206AFFF713FB69
:100BE000A5840021A06900F0E3F8A169A08B48600A
:100BF0000121A06900F0DCF80549606801F05AFEA7
:100C000070BD818C006A01F0E3FAE5E7580000202E
:100C100004010400F0B50025144F83B02E461420C3
:100C200068430096C41901960121E06800F0D6FCE3
:100C30002089009001216846017186710221C171ED
:100C4000032141716946606800F0FEF9207C21892A
:100C50000028606807D000F041FA6D1C2D062D0EAB
:100C6000DDD003B0F0BD00F03BFAF6E7B80000209D
:100C700070B50B4E00241C2060438519287C002889
:100C800009D0687C00F090FF6969884203D1298906
:100C9000686800F023FA641CE4B2042CEBD370BD46
:100CA000D0000020F0B50F461C2148431B4985B0F9
:100CB000002644180296039615460121E06800F0CC
:100CC0008DFC208902900121684601738673022100
:100CD000C1730321417302A9606800F0B5F921894D
:100CE000606800F0FBF939460D48FFF719FA06462F
:100CF0007543A06128466421FFF712FA301A60613B
:100D000000F078FF607407490194009100230122EC
:100D1000A16900F0B5FE05B0F0BD0000D0000020D4
:100D2000A08601009525000870B51C225043054A95
:100D300085180846AC6964216043FFF7F1F9201A71
:100D4000686170BDD00000201C21484310B50649E1
:100D500044182189606800F0C3F9607C00F08AFFC4
:100D60000120207410BD0000D000002010B50C48F8
:100D70000A490068FFF7D4F90A49401E88420CD896
:100D80000949486109480722C3691B021B0A4C0430
:100D90002343C361002088610A6110BDA086010061
:100DA00014000020FFFFFF0000E000E004ED00E081
:100DB0000029016802D00122114301E0014A1140DB
:100DC00001607047FEFF0000F0B40168274A11403F
:100DD00001600021016041608160C160244B2549B0
:100DE0000F2298422DD0244CF023A04202D1486813
:100DF000184330E0214D0F242402A84229D0204E70
:100E00002501B04202D14868284324E01D4F0F2637
:100E10003604B84202D1486830431CE01A4FB84249
:100E200003D148680F22120505E0184FB84204D1DB
:100E300048680F22120610430DE0154F1549B842BD
:100E400001D14868F7E7144A9042D0D0134A904243
:100E500004D1486820434860F0BC7047104A904273
:100E6000D1D0104A9042D6D0F0BC7047FEFF0000AF
:100E700008000240000002401C0002403000024016
:100E800044000240580002406C00024080000240D2
:100E900008040240000402401C04024030040240E6
:100EA000440402405804024030B403680D4A0C6AFE
:100EB00013408A684D6922430C692C4322438C6994
:100EC0002243CC6922434C6A22438C6A22431A4350
:100ED0000260CA6842600A6882604968C16030BCCA
:100EE000704700000F80FFFF10B48030826A0B0F44
:100EF0009C000F23A3409A438262826A0901090978
:100F00000A43826210BC70470149C8607047000004
:100F100000200240F0B50B2706463F04384600F09B
:100F200067F804280FD1084C206902252843206166
:100F300066612069402108432061384600F058F876
:100F40002169A9432161F0BD002002400849042025
:100F5000CA68D20701D001207047CA68D20601D5FD
:100F600002207047C9684907FBD50320704700007D
:100F7000002002400248016980221143016170474C
:100F800000200240F8B5064600200B273F040090E1
:100F90000D46384600F02CF8042815D10B4C20697A
:100FA0000121084320613580384600F021F80428EB
:100FB00006D1B61C280C00963080384600F018F890
:100FC0002169490849002161F8BD00000020024064
:100FD00004480169090603D503494160034941609A
:100FE000704700000020024023016745AB89EFCD28
:100FF00014490246CB680420DB071FD1CB68DB060F
:1010000001D5022016E0C968490713D5032011E075
:10101000CB680420DB0701D0012008E0CB68DB06A9
:1010200001D5022003E0CB685B0700D50320521EE8
:10103000012803D0002A00D105207047002AE7D1FB
:10104000FAE7000000200240F0B4002201273B46EE
:101050000C6893401C409C422AD10C79012C01D091
:10106000022C12D1866855000324AC40A64386604A
:101070004C79AC4085682C43846084889C43848090
:1010800084888B7993401C43848005685400032333
:10109000A3409D4305600D790668A5403543056072
:1010A000C5689D43C560CB79A340C4682343C36032
:1010B000521C102ACBD3F0BC70474B07DB0E9A4072
:1010C000C90810B489000818016A0F249C40A14384
:1010D0000162016A1143016210BC704701857047CB
:1010E00081617047FEE7000010B584B00921134804
:1010F00003F04CF8002819D100900190029010A044
:1011000003F0C0FA002813D0FFF7DAF8401C0446B9
:1011100002460EA10FA004F039FA224616A1684635
:1011200004F046FA694606A003F01CFC04B010BDAA
:1011300012A13E22174804F029FAFEE7905A00084F
:10114000626F6F745F74696D657300005B4B56442A
:10115000425D000025313073202020205468652036
:1011600073797374656D20626F6F742074696D6537
:10117000733A25640D0A0000256400002E2E5C528F
:1011800054455F506F72745C5254455F506F727477
:101190002E6300002418000810B507480178491F85
:1011A0000906090E017001D164210170C9B2002045
:1011B000FFF7BAFD10BD00000000002010B4C043CE
:1011C000002A0BDD074B0C78491C44402406A40D73
:1011D0001C59000A6040521E002AF4DC10BCC043B7
:1011E000704700003C560008F8B5002920D08A0757
:1011F00002D089088900091DC500294800242E183D
:101200008808800022468646002A13D0101D1268E6
:1012100073685208121822484059C018131D98428A
:1012200038D9002A36D014680020E70705D02EE010
:101230001C48F8BD1A484259F3E767080B468F422D
:1012400025D39446980701D073461B1D1C1D3846B4
:10125000A74200D13B4698420FD0101DC018046829
:1012600067466408640004603F68E4077F08FF1A6B
:10127000E40F7F00083F3C430460604600785B0059
:10128000C007C00F1843012318431060101D04004D
:10129000BAD003E004A106A004F078F92046F8BD16
:1012A0003C000020380000205B4D454D5D000000F3
:1012B0002531307320202020436F756C646E2774B5
:1012C00020616C6C6F63617465206D656D6F727900
:1012D0000D0A000070B50D46FFF786FF040003D02D
:1012E0002946FEF790FF03E002A104A004F04EF9A6
:1012F000204670BD5B4D454D5D00000025313073CB
:1013000020202020436F756C646E277420616C6C04
:101310006F63617465206D656D6F72790D0A0000F1
:1013200070B50C46002121606160A160E16021611F
:101330000546616103F090FB1E4AEB009D180028F2
:1013400013D00178C90723D06169491C6161002865
:101350002ED0011D00686E6840084018D1588E19C3
:10136000011D8E4201D90028EBD169686160E068F7
:10137000642205465043FEF7D3FE6426301A2070DF
:10138000206929467043FEF7CBFE301A607070BDAD
:10139000A168491CA1600668E16876088919E160C6
:1013A000016826694908B14200D831462161CEE77B
:1013B000D058D8E73C000020F8B5054618488142CF
:1013C0002AD0002928D00C1F206821464008400060
:1013D0002060284603F040FB00281DD01149EA0098
:1013E00055180368DE0717D126685B087708FB18D5
:1013F0005B00F607F60F08333343236000280CD058
:10140000031D00686E684008C0188B589E19031DA4
:101410009E4201D90028E4D1F8BD8858FAE70000BF
:10142000380000203C000020C3000448C1501918B7
:101430004A60C0585200083A026070473C000020E1
:10144000F8B500253E4F0C460646002906D0201F61
:101450000068C10706D0BC4200D04508954203D1C0
:101460002046F8BD0024F9E7AA4223D2201F9107A5
:1014700002D092089200121D0168131D490899427A
:1014800000D10A4691420ED0011D89180B685B08F5
:101490005B000B600468DB076408A41ADB0F6400C0
:1014A000083C23430B600178C907C90F5200114360
:1014B00002C0F8BD11463046FFF796FE00900028A6
:1014C00038D0002C3AD0002D38D02A462146FEF7DD
:1014D00081FEBC4232D0241F2068214640084000D3
:1014E0002060304603F0B8FA002827D0154BF200F0
:1014F000D5180168CE0717D12668490877087918EA
:101500004900F607F60F08313143216000280FD05B
:10151000011D00686E684008401899588E19011D19
:101520008E4201D90028E4D10098002802D005E0BD
:101530009858F7E704A106A004F028F80098F8BD31
:10154000380000203C0000205B4D454D5D00000050
:101550002531307320202020436F756C646E277412
:1015600020616C6C6F63617465206D656D6F72795D
:101570000D0A0000FEE7000030B4837801210278F4
:10158000002B15D094080E4BA400E4182368920792
:10159000D50EFF22AA40934342789207120EAA402A
:1015A0001A4322600078C006C00E8140054803E05F
:1015B000D006C00E81400448016030BC7047000076
:1015C00000E400E000E100E080E100E0FEE77047B9
:1015D000014908607047000044000020044A0029C7
:1015E000516901D0014300E081435161704700001F
:1015F00000100240044A0029D16901D0014300E0F3
:101600008143D1617047000000100240044A002964
:10161000116901D0014300E081431161704700006E
:1016200000100240044A0029916901D0014300E002
:10163000814391617047000000100240044A002974
:10164000D16801D0014300E08143D16070470000C0
:10165000001002400348416A012212061143416210
:101660007047000000100240F8B5564D0446686807
:1016700000210C22544E104005D0042803D0082825
:1016800003D00C281AD026601AE069686868032223
:101690008902D2030F0F1040BF1C00280AD0E86A4D
:1016A0000107090F3046491CFEF73AFD7843014611
:1016B000216005E0454839464143F9E74448206048
:1016C0006868444F0006000F3B5C20680246DA4021
:1016D00062606B685B055B0FFB5CDA40A2602B6BA2
:1016E000DB0502D43C4BE36006E06B685B0401D48D
:1016F000530800E09308E3602B6B5F06374B02D47E
:10170000374F276100E023612F6BFF0601D466612C
:1017100000E060612F6BBF070ED02F6BBF07BF0FBC
:10172000012F0BD02F6BBF07BF0F022F08D02F6BDD
:10173000FF43BF0706D006E0A26104E0A06102E01B
:10174000A36100E0A6612F6BBF03BF0F0FD02F6B0B
:10175000BF03BF0F012F0CD02F6BBF03BF0F022F92
:1017600009D02F6BBF03BF0F032F06D006E0E26145
:1017700004E0E06102E0E36100E0E6612F6B3F031B
:10178000BF0F0FD02A6B1203920F012A0CD0286BC7
:101790000003800F022809D0286B0003800F032864
:1017A00006D006E0226204E0206202E0236200E04C
:1017B0002662286B000602D405486062F8BD6162AB
:1017C000F8BD00000010024000127A0000093D0040
:1017D000006CDC0201000020809FD500008000002A
:1017E0001280000000230B4942090DD0012A0DD0C0
:1017F000022A0DD0496BC006C00E012282400A4267
:1018000000D00123184670470968F4E7096AF2E737
:10181000496AF0E7001002400A46014601A003F0C1
:10182000B5FEFEE75B4153534552545D2020202016
:1018300057726F6E6720706172616D657465727347
:101840002076616C75653A2066696C652025732089
:101850006F6E206C696E652025640D0A0000000023
:1018600000B5012283B0D20210490020FFF7DCFD51
:1018700000F03AFC00F0C8F900F0BCF90C49002275
:101880000091012301927D211A46C90000F0F8F869
:1018900008A000F0F1FB08A3134A14A105A000F072
:1018A00097FAFFF794FE03B000BD00004802002045
:1018B000192300086D656D0044656D6F6E20612011
:1018C0007370656369666963206D656D62616E6BD7
:1018D000204578616D706C653A6D656D2E64656D3F
:1018E0006F6E283029000000E521000864656D6FE7
:1018F0006E00000010B501460020FFF73FF910BD53
:10190000032801D00720704710B50A488C6800787A
:1019100000280AD002F072FF01220021204602F0C6
:10192000A9FA02F06CFF002010BD0349034803F040
:101930002DFEF8E728000020D0470008604100088D
:10194000042801D00720704770B5CC688D68204608
:10195000FEF785FC02462146284603F00FF80020DA
:1019600070BD0000022801D00720704770B5D0B0CC
:10197000FF21013102A8FEF746FC0024174D019417
:10198000287802AE002823D002F038FFAC7014484B
:1019900000903346002201A942A803F075F8019A8D
:1019A00001239B020F491048243203F0EFFD02F09F
:1019B00026FFAD78002D08D9A00031580020FFF790
:1019C000FBFC641CE4B2AC42F6D3002050B070BD06
:1019D0000449064803F0DAFDF7E70000280000207C
:1019E00019500008D047000840490008D8470008AF
:1019F000022801D00720704730B58FB002F0B2FD49
:101A00000025114C0E952078002817D002F0F6FE24
:101A1000A5700E4800902B4600220EA901A803F0E5
:101A200033F80E9A01239B0209490A48243203F035
:101A3000ADFD02F0E4FE00200FB030BD04490648C1
:101A400003F0A4FDF7E7000028000020195000086B
:101A5000D047000840490008D8470008042801D0B2
:101A60000720704770B5CC688D682046FEF7F7FBFD
:101A700002462146284602F081FF002070BD00008A
:101A8000FFB581B0154D0C460A9F0B9E286801F0EA
:101A900075F8102802DB012005B0F0BD14210020EC
:101AA000FFF718FC0146019848700878420803982F
:101AB0005200C007C00F0243FD2002400498C00737
:101AC000800F02430A704C608C60CF600E61286802
:101AD00001F056F8002005B0F0BD000048000020DD
:101AE000F0B583B015A003F051FD224F386801F026
:101AF00045F8C6B20025002E1ED92946386801F0E7
:101B000011F804464078A84203D01B491BA0FFF7F8
:101B100083FE2078A2688107C90F63680093029151
:101B2000C3070192DB0F62781CA11E4803F02EFD53
:101B30006D1CEDB2B542E0D303B0F0BD2D2D2D2DBF
:101B40002D2D2D2D2D2D2D2D2D2D2D2D2D2D2D2DC5
:101B50002D2D2D2D2D2D2D2D2D2D2D2D2D2D2D2DB5
:101B60002D2D2D2D2D2D2D2D2D2D2D2D2D2D0D0AE8
:101B70000000000048000020B50200002E2E5C523C
:101B800054455F436F72655C5254455F526F756E8A
:101B900064526F62696E2E63000000005B52525DFA
:101BA000000000000C5D000870B505460748294696
:101BB000006800F0B7FF04464078A84203D004490B
:101BC00004A0FFF729FEA06870BD000048000020B7
:101BD0001B0200002E2E5C5254455F436F72655C01
:101BE0005254455F526F756E64526F62696E2E6318
:101BF0000000000010B50348006800F0BFFFC0B24D
:101C000010BD00004800002010B50021074800F07A
:101C10008DFF06490020486005A000F02DFA06A3BC
:101C2000114A12A102A000F0D3F810BD4800002014
:101C300074696D657200000044656D6F6E20616CA3
:101C40006C2072756E6E696E672074696D65727353
:101C5000204578616D706C653A74696D65722E64AB
:101C6000656D6F6E000000001525000864656D6FDE
:101C70006E00000070B50E4C0546206800F07EFF37
:101C8000A84201DA022070BD2946206800F04AFF10
:101C900004464078A84204D0FF21E13105A0FFF7B7
:101CA000BBFD2078022108432070002070BD000099
:101CB000480000202E2E5C5254455F436F72655CD5
:101CC0005254455F526F756E64526F62696E2E6337
:101CD0000000000070B5164D0026286800F04EFF89
:101CE000002823DD3146286800F01CFF04460078F8
:101CF000800714D5A068002811D1E16820698847C1
:101D00006068A0602078C00709D13446286800F0D8
:101D100035FFA04203DB2146286800F0DBFE761C7D
:101D2000F6B2286800F02AFFB042DBDC70BD00008C
:101D30004800002070B5244C6068401C606000259D
:101D4000206800F01BFF002813DD2946206800F002
:101D5000E9FE0178890705D58168002902D08168EC
:101D6000491E81606D1CEDB2206800F007FFA8429B
:101D7000EBDC0026206800F001FF002823DD31465F
:101D8000206800F0CFFE05460078800714D5A868CB
:101D9000002811D1E968286988476868A860287810
:101DA000C00709D13546206800F0E8FEA84203DBF1
:101DB0002946206800F08EFE761CF6B2206800F0FE
:101DC000DDFEB042DBDC70BD48000020FEE7000015
:101DD000FFB52C4D07462878002481B00E46002818
:101DE0000FD920460C225043E96A001D0958384695
:101DF000FEF73CFA002807D0641C2878E4B2A04221
:101E0000EFD8012005B0F0BD64B2601CF9D00C2100
:101E10004C43E86A0834005900F0B0FE102802DB99
:101E2000022005B0F0BDE86A0027005900F0A6FEC8
:101E3000002812DDE86A3946005900F073FE016897
:101E40003046FEF713FA002818D0E86A7F1CFFB26C
:101E5000005900F093FEB842ECDC0C210020FFF7A3
:101E600039FA014606600398486004988860E86A79
:101E7000005900F085FE002005B0F0BD032005B03C
:101E8000F0BD000014020020F8B525A003F07EFB91
:101E900031A134A003F07AFB21A003F077FB36A137
:101EA00037A003F073FB00203C4C00902078002802
:101EB00034D93BA003F06AFB009D0C20E16A454346
:101EC000281D0A582CA13EA003F060FBE06A0835EB
:101ED0000026405900F052FE002818DDE06A314625
:101EE000405900F01FFE8768E06A3146405900F013
:101EF00019FE02683B4620A138A003F047FBE06AC8
:101F0000761CF6B2405900F039FEB042E6DC00988B
:101F1000401CC0B2009021788142CAD80020F8BD90
:101F20002D2D2D2D2D2D2D2D2D2D2D2D2D2D2D2DE1
:101F30002D2D2D2D2D2D2D2D2D2D2D2D2D2D2D2DD1
:101F40002D2D2D2D2D2D2D2D2D2D2D2D2D2D2D2DC1
:101F50002D2D0D0A00000000342E302E3036303684
:101F6000000000005254452056657273696F6E3A46
:101F700025730D0A000000005B5348454C4C5D0082
:101F80002531307320202020417661696C61626CBC
:101F900065204D6F64756C650D0A00001402002009
:101FA0002D2D2D2D2D2D2D2D2D2D2D2D2D2D2D2D61
:101FB0002D2D2D2D2D2D2D2D2D2D2D0D0A0000001B
:101FC000253130732020202020204D6F64756C65F2
:101FD000204E616D653A25730D0A0000253130737E
:101FE000202020202020202046756374696F6E20F9
:101FF0004E616D653A253136732D2D2D3A25730DC1
:102000000A000000F8B506460D46032802D0F00786
:1020100005D022E0896812A003F0B8FA1DE002247E
:10202000022E1ADDA700E9590FA0FEF71FF90028BC
:102030000FD0E9590DA0FEF719F9002809D0E95988
:102040000BA0FEF713F9002803D0E95909A0FEF709
:102050000DF9641CE4B2B442E4DB0020F8BD0000DA
:1020600025730D0A000000002564000025730000A0
:10207000257800002566000070B51A4C06462078C9
:10208000102801D3022070BD002500280FD9294651
:102090000C225143E06A091D41583046FEF7E6F82C
:1020A00000281CD06D1C2078EDB2A842EFD8C0B239
:1020B0000C21E26A4143505420780C225043E16ADB
:1020C000001D0E502078E16A5043083008180021A6
:1020D00000F02CFD2078401C2070002070BD0320F3
:1020E00070BD00001402002010B5C0210020FFF7D1
:1020F000F1F8154C0021E0620C2321704B43C154D0
:1021000020780C235843E16A10A2001D0A50207861
:10211000E16A584308300818002100F007FD2078D4
:102120000CA3401C2070184A18A108A0FFF750FE0D
:1021300018A3234A23A105A0FFF74AFE0421234840
:1021400000F0DCFA10BD00001402002073797374F3
:10215000656D0000417661696C61626C652068653F
:102160006C70207768656E207573696E67205368A0
:10217000656C6C204578616D706C653A7379737429
:10218000656D2E68656C7000891E000868656C704E
:102190000000000053696D706C6520757072696E87
:1021A0007466204578616D706C653A7379737465F7
:1021B0006D2E7072696E74287374722900000000AD
:1021C000052000087072696E740000005000002045
:1021D0000A4610B50146024800F01EFA10BD000084
:1021E00050000020032801D00720704710B586B0AA
:1021F0000C4625A003F0CAF9012231A132A003F058
:10220000C5F921A003F0C2F936A1A068FEF706F8CF
:1022100000281AD000241CA003F0B8F9224628A1F7
:1022200031A003F0B3F918A003F0B0F969462046D5
:10223000FFF776F822A131A0039B019A03F0A6F9DB
:10224000641C64B2012CE6DB1AE00FA003F09EF9D7
:10225000A068FEF728F842B219A123A003F096F96E
:1022600009A003F093F9A068FEF71DF840B2694693
:10227000FFF756F812A121A0039B019A03F086F9FB
:10228000002006B010BD00002D2D2D2D2D2D2D2D43
:102290002D2D2D2D2D2D2D2D2D2D2D2D2D2D2D2D6E
:1022A0002D2D2D2D2D2D2D2D2D2D2D2D2D2D2D2D5E
:1022B0002D2D2D2D2D2D2D2D2D2D0D0A0000000045
:1022C0005B4D454D5D0000002531307320202020FE
:1022D00042414E4B20434F554E54533A25640D0A0C
:1022E00000000000616C6C0025313073202020203C
:1022F00042414E4B25640D0A000000002531307329
:102300002020202073697A653A2025642066726552
:10231000653A2564200D0A00F0B597B0402102A867
:10232000FDF771FF002202A9524800F041F9002890
:1023300079D1002369460193097A01224E4C02A803
:102340001E4600293AD0002501782E2910D02829D0
:1023500011D02C2912D0292913D0002A13D0019989
:102360008900091948600199491C0022019121E066
:10237000057001221EE0057001231BE00570012697
:1023800018E0057016E0002B08D0019989000919A2
:1023900048600199491C002301910BE0002E09D0EF
:1023A0000199082962D28900091948600199491CDC
:1023B000002601914178401C0029C5D1002727E063
:1023C0003D460C214D43E06A291D41586068FDF7E8
:1023D0004DFF00281AD1E06A08350026405900F068
:1023E000CDFB002812DDE06A3146405900F09AFB2F
:1023F0000168A068FDF73AFF002816D0E06A761C55
:10240000F6B2405900F0BAFBB042ECDC7F1CFFB2E0
:102410002078B84202D901980228D1D202AA17A185
:1024200018A003F0B3F817B0F0BD0C214F43E06AD9
:102430000837C059314600F075FB4068002809D0C4
:10244000E06A3146405900F06DFB4268211D019859
:1024500090470546062DE1D0052D07D0072DE2D186
:1024600006A113A003F092F817B0F0BD03A11BA0C2
:10247000F8E7000050000020140200205B5348459C
:102480004C4C5D00253130732020202043616E27A5
:1024900074206964656E7469667920737563682059
:1024A000636F6D6D616E643A2573210D0A00000043
:1024B0002531307320202020496E70757420636FA1
:1024C0006D6D616E642773206172677327206E756E
:1024D0006D206572726F72210D0A00002531307314
:1024E00020202020496E70757420636F6D6D616EC1
:1024F00064277320617267732720636F756E742081
:102500006973206D6F7265207468616E206D6178EB
:10251000210D0A00022801D007207047F0B583B0D2
:10252000164803F033F8164F386800F027FBC6B2A0
:102530000025002E1ED92946386800F0F3FA04461B
:102540004078A84203D00F490F48FFF765F920787B
:10255000A2688107C90F636800930291C3070192C3
:10256000DB0F627809490A4803F010F86D1CEDB2E0
:10257000B542E0D3002003B0F0BD00003C1B0008D2
:1025800048000020B50200007C1B00089C1B0008CE
:102590000C5D000810B500781C2148430349401821
:1025A00001894068FEF79CFD10BD0000D0000020AE
:1025B00070B504460B4600786178884201D103204B
:1025C00070BD0025002A04D0C0006168001D085AB3
:1025D000108020786168C000021D8A5A0958184688
:1025E000FDF7F8FD21786068C9004158002906D040
:1025F0000020FEF7E1FE21786068C9004550207890
:102600006168C000001D0D522078A178401CFDF7C4
:1026100087FD2170002070BD70B50E46044681789C
:1026200040781546401CFDF77BFD2078814205D19E
:1026300015A118A002F0AAFF012070BD29460020B4
:10264000FEF7D2FD62786168D20088502278616816
:10265000D20089582A4600290FD03146FDF7BAFD2D
:1026600060786168C000001D0D526078A178401C40
:10267000FDF756FD6170002070BD03A110A002F0AF
:1026800085FF022070BD00005B53545245414D5DF3
:102690000000000025313073202020204E6F20657F
:1026A00078747261207175656E6520666F72207432
:1026B0006869732073747265616D0D0A0000000013
:1026C00025313073202020204E6F20657874726190
:1026D000206D656D20666F72207468697320737455
:1026E0007265616D20776974682064617461206C23
:1026F000656E74683A25640D0A00000070B5002507
:102700000570457081700446C9002846FEF76CFDCF
:102710006060002803D1292108A0FFF77DF8A07888
:1027200000280AD00021CA006368401E9D50121D77
:102730006368491C9D520028F5D170BD2E2E5C5255
:1027400054455F436F72655C5254455F53747265C4
:10275000616D2E630000000010B5FFF7EBFA10BDAD
:10276000274881B001680122114301604168254A70
:10277000114041600168244A114001600168012252
:1027800092049143016041683F22120491434160E9
:10279000C16A09090901C162016BFF2254329143E8
:1027A0000163416B49084900416300218160009148
:1027B000164A1121116041684160416841604168D9
:1027C0007F22D2039143416041680522D204114324
:1027D000416001680122120611430160016889010C
:1027E000FCD5416889088900416041680222114393
:1027F000416041680907890F0229FAD101B0704789
:10280000001002400CB8FFF8FFFFF6FE0020024067
:1028100010B50D4C0121204600F01DF8002812D003
:102820000121204600F014F8084C7D212068490160
:10283000401C2060884204D17F2000F0B5F90020C0
:102840002060FFF777FA10BD00040040CC000020A4
:10285000C94301827047038A002280890B400840E7
:10286000002B02D0002800D0012210467047000043
:1028700010B50549054800F0A5F8002802D0002051
:10288000FEF790F910BD000004010400003801407B
:1028900010B50549054800F095F8002802D0012040
:1028A000FEF780F910BD0000040104000044004060
:1028B000016270470A0C01219140016270470029B2
:1028C000016802D00122114301E04908490001607A
:1028D0007047002A826801D00A4300E08A43826080
:1028E000704700002F4910B5884207D101218C03A1
:1028F0002046FEF7A3FE0021204650E02A498842E8
:1029000009D101214C042046FEF780FE002120461B
:10291000FEF77CFE10BD2549884209D101218C04B7
:102920002046FEF773FE00212046FEF76FFE10BD25
:102930001F49884209D10121CC042046FEF766FEDA
:1029400000212046FEF762FE10BD1A49884209D1D7
:1029500001210C052046FEF759FE00212046FEF716
:1029600055FE10BD1449884206D101212020FEF7F2
:1029700065FE0021202012E01049884206D1012185
:102980004020FEF75BFE0021402008E00C49884211
:10299000E7D101218020FEF751FE00218020FEF7C3
:1029A0004DFE10BD0038014000440040004800408A
:1029B000004C00400050004000140140001801404D
:1029C000001C014030B40A04130E012214460025F5
:1029D0008C40012B0FD0022B10D083682340090CB0
:1029E000C0698A401040002B02D0002800D0012589
:1029F000284630BC704703682340F0E74368EDE7A2
:102A000010B40B041C0E01238B40022C02D0032CAB
:102A100002D002E0001D00E008300168002A01D069
:102A2000194300E09943016010BC704730B504467B
:102A300000688BB00D4640084000206060680321AC
:102A400009038843A9680143616020681C49EA685A
:102A50000840696811432A69024311432160A06854
:102A600003210902884369690143A1606846FEF7B2
:102A7000FBFD1448844201D106980AE012488442C2
:102A800001D1079805E01148844201D1089800E07F
:102A9000029821680904296800D54000FDF740FB31
:102AA0002A6852088A4200D8401C2168090404D5CB
:102AB0000107074A490F10400843A0810BB030BD01
:102AC000F3E9FFFF003801400044004000480040A7
:102AD000F0FF000070B504468368880022681D5826
:102AE000012A0ADD561E8E4207DD511A8A00011D99
:102AF00059181818121FFDF76DFB20680021401EA1
:102B00002060A268800011502068A1688200042023
:102B10002056FEF795FCA060042029462056FEF7BB
:102B20004BFC70BD806889004058704770B50C46FA
:102B30000546012903DB0F2109A0FEF76DFE601C8D
:102B400003D1102106A0FEF767FE0C212046FEF7F8
:102B5000C1FB0471002101608160286070BD00002C
:102B60002E2E5C5254455F436F72655C5254455F34
:102B7000566563746F722E63000000000068704732
:102B800070B5044600680D46820004202056121DD0
:102B9000A168FEF755FCA0602168890045502068B7
:102BA000401C206070BD704740060249400E08601E
:102BB00070470000002C00402021020C01D01021A1
:102BC0001046020A01D010460839020901D0104609
:102BD000091F820801D01046891E420801D0881EB4
:102BE0007047081A704700000048704740010020F5
:102BF00002E008C8121F08C1002AFAD170477047C6
:102C0000002001E001C1121F002AFBD17047000023
:102C1000FFB589B0129C139D0027FF4322462B4627
:102C200020462946159EFDF765FD0DD13A46B74B66
:102C300020462946FDF772FD06D33A46B44B20469E
:102C40002946FDF757FD0CD21499169809AF039643
:102C500001950094029104900FCF00F087F90DB018
:102C6000F0BD0022134620462946FDF743FD04D25D
:102C700001200790C007454001E00020079016980A
:102C8000400501D4062014906A00A24B520DD218C0
:102C90002F03A1493F0B05922046394300229F4B49
:102CA000FDF7C0FB9E4A9F4BFDF7CAFB074601910B
:102CB0000598FDF7BBFC9C4A9C4BFDF7C1FB9C4A69
:102CC0009C4BFDF70BFB3A46019BFDF707FBFDF71D
:102CD000CFFC0746FDF7AAFC974A984B019100905C
:102CE000FDF7AEFB0022964BFDF7F8FAFDF7C0FCAE
:102CF0000590FDF79BFC934A934BFDF7A1FB0291D6
:102D00000490924A924B01990098FDF799FB029B1F
:102D1000049AFDF787FB02460B4601910090FDF7F0
:102D20008FFB04900598039101057B480022081849
:102D30000290884B03990498FDF7EAFB0022864B2A
:102D4000FDF7CCFA02460B4603990498FDF7E0FB29
:102D50000022824BFDF7C2FA02460B460399049803
:102D6000FDF7D6FB05910890012100208907019B02
:102D7000009AFDF757FB059B089AFDF7AFFA039100
:102D80000490012201990098FDF73AFC039B049AF4
:102D9000FDF7BEFB0022604BFDF7A0FA0022029B6C
:102DA000FDF74EFB0090019102460B460591049001
:102DB00020462946FDF79EFC08D20022664B7F1E66
:102DC00005990498FDF7A4FB019100903846633003
:102DD000C72801D2042000E00520059016980005C0
:102DE00027D55F4A5F4B20462946FDF797FC17D849
:102DF00000225D4B20462946FDF77CFC10D214983A
:102E0000B84202DDC01B401E00E0002014900121EA
:102E1000169889020843169000200746059008E09E
:102E20001498002805D01698400502D51498401E25
:102E300014900598864202D90599701A00E0002086
:102E400004901698800704D50598002801D000202A
:102E50000490002F07D020462946019B009AFDF7D9
:102E600057FB04460D460B9808900798002802D09F
:102E70000120C007454001211698C9028843049AE1
:102E800014990490019500940392029109A80FC827
:102E900000F06CF804460598002833D01698651C9D
:102EA000800601D5452000E065202246099C0C9B48
:102EB0000A99A04705980522401E00210A23049084
:102EC000F80F029305920391002F00DA7F420097DA
:102ED00001902A460C9B0A99099800F028FA0446AA
:102EE000169880070ED50898201AB0420AD22246BA
:102EF000641C099D20200C9B0A99A8470898201A59
:102F0000B042F4D320460DB0F0BD0000FFFFEF7FCC
:102F1000FFFFEFFF01FCFFFF0000F03F0000F83F64
:102F200061436F63A787D23FFB799F501344D33F20
:102F3000B3C8608B288AC63F71A379094F930A40B2
:102F40000000E03FEF39FAFE422EE63F1655B5BBD2
:102F5000B16B024000002C400000244000001840EB
:102F60002D431CEBE2361A3F80842E41FFB593B00F
:102F70001CAAACCA0026F643002410461946FDF7E9
:102F8000B9FB0CD020980321A3A213AC02970092A6
:102F9000019103900FCC00F00EFA17B0F0BD32464D
:102FA0009E4B1D991C98FDF7A5FB0CD2209804217F
:102FB0009BA213AC02970092019103900FCC00F0FA
:102FC000FAF917B0F0BD3246974B1D991C98FDF7E2
:102FD000A5FB0ED22098410702D5042193A201E05F
:102FE000032194A213AC02970092019103900FCC9D
:102FF0000EE10022904B1D991C98FDF78FFB06D324
:1030000000228E4B1D991C98FDF774FB0DD2209861
:10301000049003971D991C98029513AC01910090A0
:103020000FCCFFF7F5FD17B0F0BD002002460346B8
:103030000F901D991C98FDF75DFB06D201200F90A3
:1030400001221D98D20750401D902098400508D4B9
:10305000062506E0302106A80155641C6D1E202CB3
:1030600001D2092DF6D81D991C98FDF701FB04909B
:10307000FDF7DCFA1D9B1C9AFDF7DAF9EA00704BAC
:1030800011929B181A685B68FDF7DAF900910E90AF
:10309000FDF712FB0646FDF7DDFA009B0E9AFDF7E1
:1030A000C7F90022674B01910090FDF737FB10D262
:1030B000761C3046FDF7CEFA614B119A9B181A68C0
:1030C0005B68FDF72BFB11D804980026401C049088
:1030D0000CE000225B4B01990098FDF70BFB05D338
:1030E000F007C00F401E304200D1761C002D1AD0D0
:1030F000202C40D2012000902020001B01900128AC
:1031000033DB0A2130466D1EFDF70AF806AA30317E
:103110001155641C060026D000980199401C0090AF
:103120008142EEDA1FE00498FDF780FA1D9B1C9A9D
:10313000FDF77EF906460D460022424BFDF7EEFAFA
:1031400006D900223F4B30462946FDF7E7FA12D256
:103150000498C0070FD00498401C04900BE0302066
:1031600006A90855641C202C05D26D1EF7D22E210D
:1031700006A80155641C202C12D220200125061B14
:10318000012E0DDB0A210498FCF7E0FF06AA30317E
:103190001155641C0490002802D06D1CAE42F1DA77
:1031A0002098800714D42098C00711D0002F06D093
:1031B00020980C2108400F99084300D07F1E302131
:1031C00006A8BC4204D2202C1AD20155641CF8E790
:1031D000202C15D20F98002804D02D2106A80155C7
:1031E000641C0DE02098400703D52B2106A801554B
:1031F00005E02098000703D5202006A90855641C87
:10320000209806A913AD02970194009103900FCD69
:1032100000F0D1F817B0F0BD6E616E00FFFFEFFF58
:10322000666E692D00000000FFFFEF7F666E692B60
:1032300000000000666E690065CDCD4165CDCDC151
:10324000405A00080000E03FFFB585B09C46964616
:103250001499119F139D0E9C109B129A0F988E0724
:1032600019D4002D06D0CE0704D00C260E401E43E4
:1032700000D06D1E3026904207D2202805D2265459
:10328000401CF8E730262654401CCE0703D0A84245
:1032900001D22028F6D3CE062AD54E050BD400281D
:1032A00009D0904201D0A84205D1401E03D0102F72
:1032B00003D1401E04E0102F02D0022F0ED012E0E6
:1032C0008A0605D4202826D278262654401C0AE0F7
:1032D000202820D258262654401C04E020281AD248
:1032E00062262654401C202815D230262654401C25
:1032F000202810D2002B03D02D222254401C0AE09B
:103300004A0703D52B222254401C04E00A0702D5A9
:1033100020222254401C019000940391634672467F
:1033200002950699059800F046F809B0F0BDFFB582
:1033300091B01A9800241C9F1F9D002801D11021D4
:103340008D43690508AE01D5002814D03946FCF735
:10335000E7FEC9B20A2901D2303106E0AA0601D53A
:10336000412200E0612251180A393155641C0028BD
:1033700001D0202CEAD31D9804901E991B98069525
:103380000591029003970096019411A80FC8FFF7CA
:103390005BFF15B0F0BD9A4200D288547047000020
:1033A000002804D002490968002900D00847704766
:1033B000440000207047FFB581B007460D980B9D73
:1033C0001446009280070DD10C982E46854209D2F2
:1033D0002246641C2020049B0299B8470C98761C56
:1033E0008642F5D3002D09D02246641C0A986D1E32
:1033F000405D049B0299B847002DF5D10D988007D8
:103400000FD50098211A0C9881420AD22246641CDA
:103410002020049B0299B84700980C99201A8842F2
:10342000F4D3204605B0F0BDFFB5A1B00546229803
:1034300000271C46002800D1FE4D2078002872D0BD
:10344000C0B2252805D03A467F1C239B2299A84765
:1034500011E30020042308220221019037E02078A4
:103460002B2826D004DC202828D0232804D12AE0C9
:103470002D2819D0302811D0C0B202460026303A8B
:10348000092A26D820460A2100784E43303E641C83
:103490008619207830380928F4D926E001980126C9
:1034A0003043641C0190DAE701980843641C0190E2
:1034B000D5E701981843641C0190D0E701981043A8
:1034C000641C0190CBE70198102630430190641CE6
:1034D000C5E72A2809D12A9840C82A90002E03DA85
:1034E0000198084376420190641C002000902078E7
:1034F0002E2823D101210198890208430190607888
:10350000641C0146303909290ED8002021460A22C0
:10351000097850433038641C08182178303909295B
:10352000F4D900900AE0ABE22A2807D12A9802C811
:103530002A90002900DC0021641C009120786C286E
:103540000AD004DC682817D06A2829D10DE0742835
:1035500020D07A2824D11DE0FF21019801310843B1
:1035600001906078641C6C281AD1012101984902ED
:103570000843641C019013E00198802108430190E6
:103580006078641C68280BD1019840210843641CB2
:10359000019005E0FF21019801310843641C01906E
:1035A000207865286FD012DC582827D008DC252821
:1035B0006AD0452867D0462867D0472819D190E1BE
:1035C00062281BD063287DD0642812D116E07028B1
:1035D00079D008DC662858D0672854D069280DD0E7
:1035E0006F2806D10AE073286ED0752806D0782897
:1035F00004D03A467F1C239B22994BE278280CD0BA
:1036000058280AD06F2841D0622841D00A218C4620
:10361000019910229143019103E010218C46582812
:1036200039D0692805D0642803D001990C22914330
:1036300001910199490503D5019949084900019172
:1036400069282DD064282BD0019880057ED522983A
:10365000089023980A902A980B97C01DC208D200A0
:103660005168106808322A9200220C9200236246A8
:103670000E930492009A039202960246019F1E4600
:103680000A4371D0ABE02CE1FFE10EE1082100E03C
:1036900002218C46C9E70199202211430191C4E718
:1036A0000198800561D52A98C01DC108C9004A68E3
:1036B000086808312A9122990C97079123990023D1
:1036C0000B9102E035E1BFE164E119461B1A91411B
:1036D00001DA114602E0002140429141002A01DA5C
:1036E000012200E000220892624600230492009A20
:1036F0000693039202960246019F1E460A4301D199
:10370000102297437A0502D502460A4317D0069B3A
:10371000049AFCF72FFDD2B20A2A01D2303206E019
:10372000BB0601D5412300E061239A180A3A10AB89
:103730009A550246761C0A4301D0202EE7D3039AFD
:103740000499029806970492039100E07AE00590AC
:103750000898029010A90196009128460B9B0C9A9C
:103760000799FFF771FDE2E037E00198C00515D534
:103770002A99634601C92A9100990391019AC10FC0
:10378000049602930592002825DD009001913A46A7
:103790002846239B2299FFF7CAFDC8E001984006FE
:1037A00004D52A990878091D2A910AE001982A99D6
:1037B000000604D50888091D00B22A9101E001C95C
:1037C0002A91009903916346019AC10F04960293CE
:1037D00005920028D9DC4042D7E7102297437A05AA
:1037E00002D502460A4317D00E9B049AFCF7C2FC8E
:1037F000D2B20A2A01D2303206E0BB0601D54123FB
:1038000000E061239A180A3A18AB9A550246761CD2
:103810000A4301D0202EE7D30298039A0499059019
:1038200003910C98069718A90290049201960091B2
:10383000284601E0B53300080A9B0B9A0899FFF768
:1038400003FD74E00198C00513D500986246019904
:103850000292039005912A98049604C800210092D0
:1038600001912A903A462846239B2299FFF75FFD53
:103870005DE00198400604D52A990878091D2A912F
:103880000AE001982A99000604D50888091D80B22B
:103890002A9101E001C92A9100996346019A039196
:1038A00004960293059200216FE7462803D1019800
:1038B0002021084301902A98019AC01DC008009950
:1038C000C00003960492029142680168083000919A
:1038D00001922A903A462846239B2299FFF746FBFD
:1038E00025E0672801D0472804D101220199D2029E
:1038F00011430191452801D0472803D10198202187
:10390000084301902A98019AC01DC0080099C00080
:103910000396049202914268016808300091019276
:103920002A903A462846239B2299FFF771F90746C9
:10393000A1E001200090019880070ED402200090A1
:10394000012E0AD93A467F1C2020239B2299A847A2
:103950000099481C0090B142F4D32A993A4608785D
:10396000091D2A917F1C239B2299A8470198800753
:1039700069D50098411C0091B0427CD23A467F1C28
:103980002020239B2299A8470099481C0090B1420F
:10399000F4D370E02A9804C82A9000980492002872
:1039A00001D0014601E00021C943104600E0401C5F
:1039B0000378002B01D0491EF9D2801A0390019898
:1039C000400505D503990098814200D2084603902E
:1039D0000198800718D40399481C0390B14213D270
:1039E0003A467F1C2020239B2299A8470399481C14
:1039F0000390B142F4D307E004993A46491C04917C
:103A00007F1C239B2299A84704980078002807D0A0
:103A100001994905F0D50099491E0091491CEBD147
:103A20000198800727D50398411C0391B04222D208
:103A30003A467F1C2020239B2299A8470399481CC3
:103A40000390B142F4D316E00198212210431023D1
:103A5000009A08210293059004912A98039204C8C1
:103A60000021009201912A903A462846239B2299F0
:103A7000FFF75DFC0746641C2078002800D0DFE4D7
:103A80002398874208D23A4607E03A467F1C252011
:103A9000239B2299A847EEE7421E03460020229965
:103AA000A847384625B0F0BD0378002B0CD0036939
:103AB00009688B4208D98178012907D0022903D1EE
:103AC00004494978002901D00020704740691060FE
:103AD000012070472800002010B504460178407886
:103AE00086B0002901D0032802D0012819D015E0A2
:103AF0002346A2780C330FA1104801F047FD204661
:103B000001F01CF9002805D00AA10D48626801F0F7
:103B10003DFD0CE007A10BA001F038FD002006B030
:103B200010BD052306226946E06A01F053FD01201D
:103B300006B010BD5B4B5644425D0000845B00083C
:103B40006C5C000825313073202020205265636FA3
:103B5000766572792074686520454E5620737563CA
:103B60006365737366756C2E0D0A000010B50178DD
:103B7000002903D0807803280CD010E009A10B485D
:103B800001F004FD00F03BFE00F0ECFC00F036FE1E
:103B9000012010BD06490120487001F031F80020D5
:103BA00010BD00005B4B5644425D0000D85B00082E
:103BB00028000020FFB58DB0044645691F46002649
:103BC0000E98FCF74CFB202807D9202281A183A066
:103BD00001F0DCFC042011B0F0BDFF222421684676
:103BE000FCF70AFB0E98FCF73AFBC0B2694608776F
:103BF000C01C8108F81C8008890080000818243047
:103C0000F721890008970590884206D971A181A003
:103C100001F0BCFC062011B0F0BD681C06D12046A6
:103C2000059901F099F90546401C7DD06178059809
:103C3000012902D0022907D015E00223042209A994
:103C4000606801F0C7FC0CE02169442902D3081A1E
:103C5000442808D20323042209A9606801F0BAFCB1
:103C6000012604007ED1FF2108A80171082200204E
:103C700007A9FDF7A3FA06906846027F0E990698F9
:103C8000FDF79CFA06906846007FC11C89088900F0
:103C90000C1A641E07D3012209A90698FDF78EFAB3
:103CA0000690641EF7D2089A0F990698FDF786FAD7
:103CB000069008980899C01C80088000441A641E69
:103CC00007D3012209A90698FDF778FA0690641E29
:103CD000F7D26F46012306223946284601F07AFCC6
:103CE000002801D0044607E0394628461022143146
:103CF000143000F0D1FD0446002C68D12846243051
:103D00000A900E9809906846047F042001460B90A3
:103D1000FF220CA8FCF770FAA708BF003A460999E1
:103D20000A9800F0B9FD00E050E0E21B00280CD139
:103D3000002A0CD0099839180CA8FCF74BFA0A98FD
:103D40000CA938180B9A00F0A7FD04003FD1684673
:103D5000007FC01C80088000401924300A900F9812
:103D6000099000E033E0042001460C90089CFF22FB
:103D70000BA8FCF741FAA708BF003A4609990A9830
:103D800000F08AFDE21B00280CD1002A0CD0099813
:103D900039180BA8FCF71EFA0A980BA938180C9AC8
:103DA00000F07AFD040012D102230622694628465B
:103DB00001F010FC04000AD1002E08D005A120A0BB
:103DC00001F0E4FB2A490120487000E00624204667
:103DD00011B0F0BD5B4B5644425D0000253130739D
:103DE000202020204572726F723A20546865204569
:103DF0004E56206E616D65206C656E677468206933
:103E000073206D6F7265207468616E2025640D0AE1
:103E10000000000025313073202020204572726F91
:103E2000723A2054686520454E562073697A6520A1
:103E3000697320746F6F206269670D0A00000000CB
:103E40002531307320202020547269676765722005
:103E50006120474320636865636B20616674657207
:103E6000206372656174656420454E562E0D0A000C
:103E70002800002070B594B016460C0005460ED1FF
:103E800000236A461371244A0146009202A801AA3F
:103E900000F0FAFD6A461079002810D002ACE06A02
:103EA000002E14D0042306220FA901F093FB05462F
:103EB000E06A860AB6020C36002D0FD029E02A46A9
:103EC00016A118A001F062FB042014B070BD0323FA
:103ED00006220FA901F07EFB0546E9E70FAC30464C
:103EE0000C22214600F0C2FC0021032202204301E3
:103EF000DB08E35C002B02D0491C401EF7D2501AAD
:103F0000012806D1022304220FA9304601F062FBEA
:103F10000546284614B070BDB54B00085B4B5644AF
:103F2000425D000025313073202020204E6F742028
:103F3000666F756E64202725732720696E20454EB5
:103F4000562E0D0A00000000F0B50446007899B026
:103F500000286ED0A078022801D0032869D16068BB
:103F60000323042216A90C3001F034FB0027FF4381
:103F70000B976078012861D065680DAE2435142256
:103F80003146284600F072FC00210522042043013E
:103F9000DB08F35C002B02D0491C401EF7D28A429A
:103FA0004BD00B956D1C49D003A80D90684601F0CD
:103FB000EDF868460078002811D06846407802285D
:103FC00001D003280BD1684600F0B8FE002806D0C7
:103FD0006846827834A136A00D9B01F0D7FA60784C
:103FE00001282AD00B98401C24D0012062680B992C
:103FF00080021018814220D8019A8E18B0421CD33A
:10400000002A1AD00EAD30461422294600F02EFCAC
:104010000021052304204201D208AA5C002A02D014
:10402000491C401EF7D28B4207D00B96761CBDD19F
:1040300004E035E066682436E4E70B976568A80578
:1040400004D04B21C90028A0FDF7E6FB012189021D
:10405000284600F0D5FB00281DD1FF2224210DA801
:10406000FCF7CAF80DA80C21FF22FCF7C5F80026C2
:1040700008A8067510A80C21FF22FCF7BDF810A8AF
:1040800006701F481390701E1590149724220DA9D6
:10409000284600F001FC04A11AA0626801F076FA3B
:1040A000002019B0F0BD00005B4B5644425D00009B
:1040B00025313073202020204572726F723A204DD6
:1040C0006F7665642074686520454E562028252E3D
:1040D0002A732920666F72204743206661696C65E8
:1040E000642E0D0A000000002E2E5C5254455F43E2
:1040F0006F72655C5254455F4B5644422E6300001C
:10410000454634302531307320202020436F6C6CBD
:10411000656374206120736563746F72204030782A
:10412000253038580D0A000010B50B4904460978AF
:1041300000290BD000F062FB012200212046FFF78E
:1041400099FE044600F05BFB204610BD034904A025
:1041500001F01CFA072010BD28000020D0470008FD
:1041600025313073202020204572726F723A20452D
:104170004E562069736E277420696E697469616C8C
:10418000697A65204F4B2E0D0A000000F0B59DB0F6
:104190000E46050003D1724972A0FDF73DFB774C36
:1041A0002078002802D000201DB0F0BD744AA6601F
:1041B000E560131473A175A0626001F0E7F90026B1
:1041C00000F01CFB0027804800903B463A463946E9
:1041D000019710A801F084F97C4D00231A46194676
:1041E00002A8009500F050FC6078002802D000F092
:1041F00007FDF2E700F003FB032009960A906A46E8
:104200001774764A009272A10BAE04250CA8002305
:1042100004AA00F039FC6A46107C00283FD00E98B2
:10422000042800D205462A463146189800F01EFBA5
:10423000002D34D00A9B0B9A9A426BD0684969A032
:1042400001F0A4F9A0680026002828D935460C20E2
:104250004543E0686A4641591771604A00920FA8C9
:10426000002301AA00F010FC6A461079002812D140
:10427000E06829188868002802D14868FBF7EFFF3A
:104280000021C9430791E16803466A1852684959F9
:1042900002A8FFF78FFCA068761C8642D6D30AA836
:1042A000029004204AA501905A4E2846FBF7D7FFFA
:1042B000C01C810889003046283100F04DFE401CAA
:1042C00028D06A461774454A00922946524800236E
:1042D00004AA00F0D9FB6A46167C002E06D0002204
:1042E0004D492846FFF7C6FD00280ED1294649480A
:1042F000019B029AFFF75EFC002E06D0002804D135
:10430000012245492846FFF7B5FD6078002801D015
:1043100000F076FC0120207040A0FDF7ADFE41A327
:104320004C4A4DA13DA0FDF753FD4EA35B4A5CA155
:104330003AA0FDF74DFD5CA3684A69A137A0FDF7DF
:1043400047FD69A3744A75A134A0FDF741FD75A32B
:10435000804A81A131A0FDF73BFD09981DB0F0BD59
:104360009F0500002E2E5C5254455F436F72655CC2
:104370005254455F4B5644422E63000028000020F3
:10438000007800085B4B5644425D000025313073D5
:1043900020202020454E5620737461727420616481
:1043A0006472657373206973203078253038582C17
:1043B0002073697A652069732025642062797465A9
:1043C000732E0D0A000000006D3B0008D93A00086A
:1043D0005F5F7665725F6E756D5F5F00B54B00085D
:1043E000D0470008253130732020202055706461AB
:1043F00074652074686520454E562066726F6D2086
:1044000076657273696F6E20256420746F20256451
:104410002E0D0A00FC010020C80100206B766462AA
:10442000000000005072696E7420616C6C20656E33
:1044300076207661726961626C6573204578616D82
:10444000706C653A6B7664622E7072696E74656E1C
:1044500076000000651900087072696E74656E76EA
:1044600000000000437265617465206120656E760E
:10447000207661726961626C65204578616D706C4F
:10448000653A6B7664622E6E6577656E76286B652D
:10449000792C76616C7565290000000041190008CF
:1044A0006E6577656E760000536574206120656ED9
:1044B00076207661726961626C65204578616D7005
:1044C0006C653A6B7664622E736574656E76286BE4
:1044D00065792C76616C7565290000005D1A00080D
:1044E000736574656E76000044656C657465206163
:1044F00020656E76207661726961626C6520457810
:10450000616D706C653A6B7664622E64656C656E85
:1045100076286B65792900000119000864656C65CF
:104520006E760000526573657420616C6C20656E58
:1045300076207661726961626C6573204578616D81
:10454000706C653A6B7664622E7265736574656E25
:1045500076000000F11900087265736574656E7667
:1045600000000000F0B53C4D0024E86891B0002840
:1045700003D13A493AA0FDF74FF9A868002803D1C2
:104580003D4937A0FDF748F900F038F932480121DC
:104590004568C9026818854239D203A84F100990AE
:1045A0000026F643A80504D04B21C9003348FDF787
:1045B00033F93946284600F023F900281DD1FF229F
:1045C00024216846FBF718FE68460C21FF22FBF702
:1045D00013FE0024684604700C21FF220998FBF7A3
:1045E0000BFE6846047326480690601E08900796E6
:1045F00024226946284600F04FF9040026D11648C7
:10460000ED1941680120C00208188542C8D3124D37
:104610000026A868002819D90C2037464743E868C7
:1046200038188368002B03D14068FBF718FE034657
:104630000020C0430F90E86839184A68C1590AA899
:10464000FFF7B8FAA868761C8642E5D300F0D7F8E1
:10465000204611B0F0BD00002800002082040000B8
:104660002E2E5C5254455F436F72655C5254455F19
:104670004B5644422E63000083040000E8400008CB
:1046800045463430F0B505462C482B4E0078802442
:1046900000278FB000283DD000F0B0F86A461771AF
:1046A000274A0092294602A8002301AA00F0ECF94B
:1046B0006A461079002832D00498802800D2044637
:1046C000224631460E9800F0D1F800F098F8002C00
:1046D00027D0E007184AC00F0021002806D9535CF4
:1046E000203B5F2B20D2491C8142F8D32146A042B7
:1046F0000CD2115C20395F2916D211184978203963
:104700005F2911D2801C2146A042F2D30A484754A7
:104710000FB0F0BD0B490C4800F038FF01E000F08D
:104720006EF800200FB0F0BD08A10A4800F02EFF7F
:1047300000200FB0F0BD0000440100202800002040
:10474000B54B0008D0470008D84700085B4B5644DB
:10475000425D0000C45C0008F0B506461A488FB000
:1047600000781F4615460C4600281AD000F046F87F
:104770003146264600246A461471144A009202A863
:10478000234601AA00F080F96A461079002815D066
:10479000002F01D0049838600498A84208D204463B
:1047A00007E00BA10CA000F0F1FE00200FB0F0BD5F
:1047B0002C46224631460E9800F058F800F01FF8BB
:1047C00020460FB0F0BD000028000020B54B0008C7
:1047D0005B4B5644425D0000253130732020202081
:1047E000454E562069736E277420696E697469613D
:1047F0006C697A65204F4B2E0D0A00007047704798
:10480000F8B5064600270C46800503D0272111A0E5
:10481000FDF702F8A50AA00500D06D1CFCF7D8FB37
:104820003520FCF771FB0024002D0ED9FCF78EFB20
:104830000128FBD0A0028019FCF76CFB042801D0F2
:10484000012702E0641CAC42F0D3FCF793FB38462E
:10485000F8BD00002E2E5C5254455F4253505C421E
:1048600053505F466C6173682E630000F8B50646CE
:10487000002017460C4605460090002A0AD9FCF78E
:1048800065FB0128FBD030782070641C6D1C761C01
:10489000BD42F4D30098F8BDF8B505460020174690
:1048A0000C460090FCF794FB3520FCF72DFB00260E
:1048B000002F13D9FCF74AFB0128FBD028462168BA
:1048C000FCF760FB28682168814202D00320009039
:1048D00004E0241D2D1D361DBE42EBD3FCF74AFB20
:1048E0000098F8BD70B590B00025124C06460E95A4
:1048F0002078002817D0FFF781FFA5700E480090A0
:10490000334600220EA901A800F0BEF80E9A01233A
:104910009B020A490AA0243200F038FEFFF76FFF1D
:10492000A07810B070BD05490D4800F02FFE0020A2
:1049300010B070BD2800002019500008D0470008B2
:10494000253130732020202073697A653A20256450
:104950002F25642062797465732E0D0A0000000013
:10496000D847000870B505460C460846FBF777FCAB
:1049700002462146284600F001F870BDF0B5064613
:104980002F4883B0007815460C4600282BD0FFF73F
:1049900035FF0294002C2DD02A4C3046FBF75FFCEB
:1049A000C01C8108E81C8008890080000918204686
:1049B000243100F0D1FA401C23D000236A46137141
:1049C000224A00923146204801AA00F05DF86A466A
:1049D0001779002F17D000221B493046FFF74AFAFB
:1049E000040010D020E01A491A4800F0CFFD07203B
:1049F00003B0F0BD012200213046FFF73BFA044628
:104A000018E0062416E02B4631460E48029AFFF7BE
:104A1000D1F80446002F07D0002C05D101220A4905
:104A20003046FFF727FA044605484078002801D0B1
:104A300000F0E6F8FFF7E3FE204603B0F0BD00000B
:104A400028000020FC010020C8010020B54B000810
:104A5000D0470008D847000810B40A4BC4001A59C0
:104A600000290CD0081D096849080818E118496890
:104A70005218011D8A4200D8002010BC704710BC9B
:104A8000104670473C000020FFB500228DB0D24395
:104A90004749044601924868169E431C7DD0002277
:104AA000694600F029FC002864D1002E62D06846D7
:104AB0004078022801D003285CD10027FF436846D4
:104AC000E7624078012855D0019807AD24301422C0
:104AD00029460690FFF7CAFE002105230420420163
:104AE000D208AA5C002A02D0491C401EF7D28B4291
:104AF00004D00698E062401C02D13BE0E76239E056
:104B0000204600F043FB2046109B0F9A0E99B047B9
:104B1000002842D168464078012828D0E06A411C2C
:104B200022D00121019A8902511888421FD8626857
:104B30008718B9421BD3002A19D006AD3846142273
:104B40002946FFF793FE0021052204204301DB08DC
:104B5000EB5C002B02D0491C401EF7D28A4206D0E3
:104B6000E7627F1CCCD105E0019F2437E5E70027F1
:104B7000FF43E7620198401C11D00398401C11D0FC
:104B8000039901988902401809494A680121C9021C
:104B90005118884201D2411C81D111B0F0BD0448A6
:104BA0004068F8E70120019980020818ECE700004E
:104BB0002800002070B504460E4615460846FBF74F
:104BC0004EFBC2B2A078904200D90246207800285D
:104BD00009D06078022806D1204631460C30FBF718
:104BE00053FB002801D0002070BD0120287070BD4B
:104BF0000078002802D00868401C08600020704738
:104C000010B58AB00024104800900894234608AAE2
:104C10000121019402A800F063FC01230B490CA0C0
:104C2000089A00F0B3FC0898012808D81848002317
:104C300000901A461946019402A800F051FC15484C
:104C400044700AB010BD0000F14B0008D0470008C6
:104C500025313073202020205468652072656D61F5
:104C6000696E20656D70747920736563746F72204E
:104C700069732025642C204743207468726573682B
:104C80006F6C642069732025642E0D0A00000000FB
:104C9000493F00082800002082B05E20FCF7A2FDFA
:104CA000002801D0FCF7D6FCFCF7DAFDE12149022F
:104CB0000020FBF7B7FE1448FCF78AFC134814A148
:104CC000026816A000F062FCFCF70EFAFCF792FFF7
:104CD000002218490123019200911A461649FCF757
:104CE000CFFE7D216422C9000020FBF7DBFF0020FE
:104CF000FCF72AF8FBF78EFFFCF738F8FCF7EAFF21
:104D0000FBF7B6FFFAE70000F518000814000020D2
:104D10005B53595354454D5D0000000025313073FD
:104D20002020202052756E20417420256420487A6E
:104D3000210D0A009911000850C30000F0B5044687
:104D4000A9B0002008906078022804D100222146F2
:104D50001046FFF78FF802A80A9060680B900020B9
:104D6000C04300250990594800900C950D950DAB56
:104D70000CAA294601950A9800F0B2FB0D9801266D
:104D8000534F002807D0009709AB0BAA02210196C8
:104D90000A9800F0A5FB0C98002817D00999491C27
:104DA00014D1012803D84B484078002808D0009738
:104DB00009AB0BAA012101960A9800F091FB05E0CE
:104DC000454946A000F0E2FB42484670099812901F
:104DD000401C28D009950A950B950C950D950E95BC
:104DE0000F95109511952146A2780C3109A81391C1
:104DF000FBF728FA6A461571464A009209A91BA8D2
:104E0000002301AAFFF740FE6A461079002854D11A
:104E10000123062216A96668129800F0DBFB002524
:104E2000143E03D11EE0062029B0F0BD28462030F4
:104E3000B04201D2202700E0771BF81C82082846E8
:104E4000E16A1430081892000AA9FFF70FFD1298C2
:104E50003A4640190AA91430FFF71EFDED190890D3
:104E6000B542E3D30223062216A9129800F0B2FB42
:104E70006946497A6068012902D0022907D012E008
:104E80000223042209A9039800F0A4FB0BE0069971
:104E9000442902D3081A442805D20323042209A96D
:104EA000039800F097FBE06A129901910090A278B4
:104EB00019A11BA0139B00F069FB012221460020D1
:104EC000FEF7D8FF089829B0F0BD0000695500082A
:104ED000A93A000828000020D04700082531307387
:104EE0002020202054726967676572206120474343
:104EF00020636865636B20616674657220616C6C09
:104F00006F6320454E56206661696C65642E0D0AFC
:104F100000000000B54B00085B4B5644425D0000AA
:104F200025313073202020204D6F76656420746811
:104F30006520454E562028252E2A73292066726F3B
:104F40006D2030782530385820746F203078253027
:104F500038582E0D0A000000F0B5002789B00D4624
:104F600006463C460020C04307940290059424481E
:104F70000090049507AB05AA00210194304600F08B
:104F8000AFFA0798002809D001211E48019100902E
:104F900002AB04AA0221304600F0A2FA05980028CC
:104FA00019D00299491C16D1012803D81648407817
:104FB000002809D013480121009002AB04AA0191F6
:104FC000304600F08DFA06E01049114800F0DEFA94
:104FD0000D49012048700298411C0ED10A494978B8
:104FE00000290AD0002F08D12A460849094800F0B4
:104FF000CDFAFFF705FE0127B4E709B0F0BD0000C8
:1050000069550008A93A000828000020D047000888
:10501000DC4E00081C5C0008F0B5044699B0012085
:105020000C90207800271D4600287DD00868626813
:10503000801808606078022876D1002000900190E6
:105040000290039004900590069007902146A27864
:105050000C3168460891FBF7BDF8694641A000F0A5
:1050600095FA002D19D0404EA278B078521C8000DD
:1050700029580020FCF7E4F9B17889006850A1783C
:10508000491CFBF7C0F8B078A2788000285808992E
:10509000FBF7A0F8B078401CB070A06880284FD211
:1050A000A0680026002846D931462031884201D91F
:1050B000202500E0851BE81C8208206B92008019E7
:1050C00010A9FFF7D3FB002F12D000200090019011
:1050D0000290039004900590069007902A4610A92C
:1050E0006846FBF777F8694620A000F04FFA1EE00B
:1050F00010A8002D1BD0E907C90F0023002906D9ED
:10510000C25C203A5F2A1BD25B1C8B42F8D3A942B7
:105110000DD2425C203A5F2A12D242185278203ACD
:105120005F2A0DD2891C00E018E0A942F1D3A068E3
:105130007619B042B8D80C98B84304D00127AFE72D
:1051400000200C90F7E70C98002804D108A0A26872
:10515000216B00F01BFA0CA000F018FA002019B027
:10516000F0BD000025733D002800002025730000DD
:10517000626C6F6220403078253038582025646298
:1051800079746573000000000D0A0000F0B595B059
:105190000446002009900A9024226946E06AFFF73D
:1051A00065FB002105236A4604204501ED08555D95
:1051B000002D02D0491C401EF7D2581AC1B26170AE
:1051C00005986060421C03D00122D202904214D99B
:1051D0002420606005290BD063702FA130A0E26A03
:1051E00000F0D4F9052306226946E06A00F0F2F9DE
:1051F00000202070022015B0F0BD37494018374913
:10520000884204D2FF21453135A0FCF705FB6768D1
:1052100000251C3F19D028462030B84201D2202654
:1052200000E07E1BF01C82082846E16A1C3008184A
:1052300092000CA9FFF71AFB32460CA90998FBF75C
:10524000BDFFAD190990BD42E5D306990998814289
:1052500005D00020207002200A9015B0F0BD01207A
:1052600020706846007FE56AC01C8208214624350C
:1052700092000C312846FFF7F9FA6846007FC01CFF
:1052800080088000401920630898A0606846007F6D
:10529000A0700A9815B0F0BD5B4B5644425D00000B
:1052A00025313073202020204572726F723A2054CD
:1052B000686520454E562040307825303858206C9F
:1052C000656E6774682068617320616E2065727214
:1052D0006F722E0D0A00000023FCFFFF2304000064
:1052E0002E2E5C5254455F436F72655C5254455F8D
:1052F0004B5644422E630000F7B50546A2B000208D
:1053000018900C46A80504D0FF216C315DA0FCF775
:1053100083FA002C04D1FF216D315AA0FCF77CFAEE
:1053200024220DA92846FFF7A1FA656013985B496E
:10533000A060884204D000202070072025B0F0BD76
:10534000012020701498E060002003230DAA0221A0
:105350004E01F608965D002E02D0401C491EF7D281
:10536000181AC3B200200326022163700C324F01C9
:10537000FF08D75D002F02D0401C491EF7D2301A1B
:10538000A0702498002876D0243500206561206123
:10539000F7208000012B02D0022B02D06BE02061AD
:1053A00069E00027FF4320610B976078012862D0F5
:1053B00065681CAE2435142231462846FFF756FA9C
:1053C0000021052204204301DB08F35C002B02D0FE
:1053D000491C401EF7D28A4203D00B956D1C02D1A6
:1053E00049E00B9747E06846FFF7D0FE6846007833
:1053F00000280FD16846407801280BD0052809D035
:1054000027A129A00B9A00F0C1F8002020610220FA
:10541000189030E060690199401860612169019835
:10542000081A206160780128DBD00B98401C25D039
:10543000012062680B99800210188142D1D8019A2C
:105440008E18B042CDD3002ACBD01CAD14222946F1
:105450003046FFF70BFA0021052204204301DB0848
:10546000EB5C002B02D0491C401EF7D28A42B8D018
:105470000B96761CB7D1189825B0F0BD6668243617
:10548000E3E700002E2E5C5254455F436F72655C6B
:105490005254455F4B5644422E630000454634301B
:1054A0005B4B5644425D00002531307320202020A4
:1054B0004572726F723A2054686520454E56202816
:1054C0004030782530385829204352433332206306
:1054D0006865636B206661696C6564210D0A000074
:1054E000FFB581B004460D460020C0430B9F0A9EC5
:1054F0001C49606048680090401C2AD00022214668
:105500000098FFF7F9FE002D02D06078A8420ED176
:10551000002F04D03A4621460098FFF7EDFE002EFA
:1055200005D02046049A0399B047002811D160683D
:10553000411C10D0E1684A1C10D08902401809496A
:105540004A680121C9025118884202D20090401CC9
:10555000D4D105B0F0BD03484068F7E701218902C6
:10556000ECE70000280000200378002B0CD04078E6
:10557000012802D0022804D006E00868401C086018
:1055800002E01068401C1060002070470FB400B5A6
:1055900083B005A800900022D24301A90348049BD0
:1055A000FDF742FF03B008BC04B01847A133000860
:1055B0000FB408B504AA009200220146D243044861
:1055C000039BFDF731FF01B008BC04B01847000091
:1055D00097330008F8B516461D460C460746B342F9
:1055E00003D3EC210FA0FCF717F9002C03D1ED2118
:1055F0000CA0FCF711F970011938C108FF222046F0
:10560000FAF7FAFD002D0BD0A8000022001F22544B
:10561000411C05D0211838180422FFF73DF9F8BDC8
:105620000020F8BD2E2E5C5254455F436F72655CBE
:105630005254455F4B5644422E6300000000000068
:10564000963007772C610EEEBA51099919C46D078F
:105650008FF46A7035A563E9A395649E3288DB0EEA
:10566000A4B8DC791EE9D5E088D9D2972B4CB609CD
:10567000BD7CB17E072DB8E7911DBF906410B71DAA
:10568000F220B06A4871B9F3DE41BE847DD4DA1AE3
:10569000EBE4DD6D51B5D4F4C785D38356986C1314
:1056A000C0A86B647AF962FDECC9658A4F5C01148D
:1056B000D96C0663633D0FFAF50D088DC8206E3B6B
:1056C0005E10694CE44160D5727167A2D1E4033C7D
:1056D00047D4044BFD850DD26BB50AA5FAA8B535A4
:1056E0006C98B242D6C9BBDB40F9BCACE36CD83293
:1056F000755CDF45CF0DD6DC593DD1ABAC30D9263A
:105700003A00DE518051D7C81661D0BFB5F4B4213C
:1057100023C4B3569995BACF0FA5BDB89EB8022839
:105720000888055FB2D90CC624E90BB1877C6F2FBE
:10573000114C6858AB1D61C13D2D66B69041DC76B9
:105740000671DB01BC20D2982A10D5EF8985B17192
:105750001FB5B606A5E4BF9F33D4B8E8A2C9077841
:1057600034F9000F8EA8099618980EE1BB0D6A7FD8
:105770002D3D6D08976C6491015C63E6F4516B6B91
:1057800062616C1CD83065854E0062F2ED95066C46
:105790007BA5011BC1F4088257C40FF5C6D9B065BB
:1057A00050E9B712EAB8BE8B7C88B9FCDF1DDD6218
:1057B000492DDA15F37CD38C654CD4FB5861B24D7E
:1057C000CE51B53A7400BCA3E230BBD441A5DF4A48
:1057D000D795D83D6DC4D1A4FBF4D6D36AE969430B
:1057E000FCD96E34468867ADD0B860DA732D0444B6
:1057F000E51D03335F4C0AAAC97C0DDD3C710550E1
:10580000AA41022710100BBE86200CC925B5685787
:10581000B3856F2009D466B99FE461CE0EF9DE5ED0
:1058200098C9D9292298D0B0B4A8D7C7173DB35981
:10583000810DB42E3B5CBDB7AD6CBAC02083B8ED12
:10584000B6B3BF9A0CE2B6039AD2B1743947D5EA1F
:10585000AF77D29D1526DB048316DC73120B63E34E
:10586000843B64943E6A6D0DA85A6A7A0BCF0EE4AD
:105870009DFF099327AE000AB19E077D44930FF068
:10588000D2A3088768F2011EFEC206695D5762F75F
:10589000CB67658071366C19E7066B6E761BD4FE9C
:1058A000E02BD3895A7ADA10CC4ADD676FDFB9F979
:1058B000F9EFBE8E43BEB717D58EB060E8A3D6D63B
:1058C0007E93D1A1C4C2D83852F2DF4FF167BBD169
:1058D0006757BCA6DD06B53F4B36B248DA2B0DD86C
:1058E0004C1B0AAFF64A0336607A0441C3EF60DF0F
:1058F00055DF67A8EF8E6E3179BE69468CB361CBF8
:105900001A8366BCA0D26F2536E2685295770CCC1C
:1059100003470BBBB91602222F260555BE3BBAC55D
:10592000280BBDB2925AB42B046AB35CA7FFD7C24E
:1059300031CFD0B58B9ED92C1DAEDE5BB0C2649B3F
:1059400026F263EC9CA36A750A936D02A906099C72
:105950003F360EEB8567077213570005824ABF95E5
:10596000147AB8E2AE2BB17B381BB60C9B8ED29268
:105970000DBED5E5B7EFDC7C21DFDB0BD4D2D386BF
:1059800042E2D4F1F8B3DD686E83DA1FCD16BE8132
:105990005B26B9F6E177B06F7747B718E65A088803
:1059A000706A0FFFCA3B06665C0B0111FF9E658F94
:1059B00069AE62F8D3FF6B6145CF6C1678E20AA03E
:1059C000EED20DD75483044EC2B30339612667A7C4
:1059D000F71660D04D476949DB776E3E4A6AD1AE13
:1059E000DC5AD6D9660BDF40F03BD83753AEBCA9A2
:1059F000C59EBBDE7FCFB247E9FFB5301CF2BDBD0F
:105A00008AC2BACA3093B353A6A3B4240536D0BA17
:105A10009306D7CD2957DE54BF67D9232E7A66B3B4
:105A2000B84A61C4021B685D942B6F2A37BE0BB461
:105A3000A18E0CC31BDF055A8DEF022D0000000064
:105A4000000000000000F03F0000000000002440C3
:105A500000000000000059400000000000408F409E
:105A6000000000000088C34000000000006AF84009
:105A70000000000080842E4100000000D01263412D
:105A80000000000084D797410000000065CDCD41A3
:105A9000945D00086C5D000800000000A05D000837
:105AA000705D000800000000A85D0008705D00083F
:105AB00000000000B05D0008705D000800000000FC
:105AC000B85D0008705D000800000000745D00080B
:105AD000685D0008000000007C5D0008685D00084B
