:020000040800F2
:10000000100E0020C90000086D14000875100008CB
:1000100000000000000000000000000000000000E0
:100020000000000000000000000000005919000856
:100030000000000000000000C5140008B91A000804
:100040003D1F000800000000F9000008F90000084A
:10005000F9000008F9000008F9000008F90000089C
:1000600000000000F9000008F9000008F90000088D
:10007000F9000008F9000008F9000008000000007D
:10008000951B00080000000000000000F9000008B7
:10009000F9000008F9000008F9000008F90000085C
:1000A000F9000008F9000008F9000008F51B000835
:1000B000151C00080348854600F0E0FB0048004797
:1000C000F53D0008100E00200C4880F308880C480D
:1000D0000168090E0B4A914205D10B480B4901609A
:1000E0000B480C4901600C4880470C480047FEE76C
:1000F000FEE7FEE7FEE7FEE7FEE70000100E002049
:10010000040000001F000000181002400100000061
:100110000000014000000000E11A0008B5000008DE
:1001200030B50B46014600202022012409E00D468F
:10013000D5409D4205D31D469540491B2546954017
:1001400040191546521E002DF1DC30BD70B500245B
:100150002546002801DA01244042002901DA012560
:100160004942FFF7DDFFAC4200D04042002C00D0F6
:10017000494270BDF0B51FB40646002082B0054666
:100180004024019100901BE0019922460F46304621
:1001900000F0B8FA049A059B801A994110D31046D2
:1001A0001946224600F09EFA361A8F4101972246E0
:1001B00001200021009F00F095FA38184D41009071
:1001C0002046641E0028DFDC019B00982946324649
:1001D00007B0F0BD03460B439B0703D009E008C9F5
:1001E000121F08C0042AFAD203E00B780370401CE7
:1001F000491C521EF9D27047D2B201E00270401C75
:10020000491EFBD270470022F6E710B513460A4696
:1002100004461946FFF7F0FF204610BD10B504460E
:1002200005E00B780370401C002B00D0491C521EC7
:10023000F7D2204610BD421C0178401C0029FBD19A
:10024000801A704730B505460020034600E05B1C6D
:10025000934205D2EC5CC85C201A01D1002CF6D187
:1002600030BD70B5064601F0A3FE046805460A22BB
:100270000021304600F06AFA2C6070BDF0B50746E8
:100280000846584087B0C00F049048000E465900F9
:1002900040084908BC1A884105D2384631461E46F6
:1002A00017460B4602465800400810434CD0300D0C
:1002B000039040055900400D490D0590401A0290E9
:1002C000402872DA18030121000B09050843019048
:1002D00004980092002805D00199524200208841DC
:1002E00000920190029840210A1A0199009800F0AA
:1002F000F9F905460C466B4607CB00F014FAC01915
:100300007141039A0E0D0023D71756401A467A40C2
:10031000164344D0049A002A2DD0029A012A039A47
:1003200015DC1205C01A914101263605001C7141E9
:10033000D20F059ED2070093019202962A462346C9
:1003400000F049FA07B0F0BD38463146FAE7160525
:10035000224A0F46B218C01AB74101210905001CF4
:100360004F4100187F41114618187941E20F1043A0
:100370006D19644113E0E2076D0815436408C20774
:100380001443039A01261205C01A91413605001C38
:100390007141CE07400830434908C01851412A46F0
:1003A000234600F00BFACDE7FFE704980122400056
:1003B000C117121A00238B4104983146C417381A0A
:1003C000A141EEE730B40124E407634030BC55E7B7
:1003D00030B40124E407614030BC4FE70000E0FF87
:1003E000F0B51FB488B00B990998002448400999CA
:1003F000C00F490049080991C0070B9900904900B6
:1004000049080B9109990898A64608431CD00B99F6
:100410000A98084318D0099801244000420D48006A
:10042000410D099824050003000B204309900B9807
:100430000003000B20430B9050181C494018002269
:1004400001901446104605E0002001460DB0F0BDB5
:10045000032801DA034600E003239C46C11A0AAED2
:100460000AE05F0008ADED5B4F00F75B7D430027BE
:10047000AA187C41491C5B1E6145F2DD410004ABBA
:100480005A522104120C0A43240C401C0828DFDBBA
:10049000019802900099704601910090059B049A82
:1004A0000799069800F097F9D0E700000DFCFFFFD0
:1004B000F0B50C465C4085B0E40FE40703944C00B3
:1004C00000266408590094464908024602962243D1
:1004D00021D062460A431ED06200570D4A000E0327
:1004E0002303550D012402462C492405781B1B0BC0
:1004F000360B401823432643614600901C46501A91
:10050000B44103D30098401C009002E09218009878
:100510005B41002803DA0020014605B0F0BD002051
:10052000012109050746864611E064461D46141B55
:10053000B54106D36546521BB341744607430C438D
:10054000A646CD0740084908284392185B41054656
:100550000D43EAD11046184313D060461946504067
:100560007140084306D06046101AB34106D20122FA
:10057000002306E000220123DB0702E00122D24330
:100580005310009874460105381C6141029C039D7C
:100590000019694100F012F9BFE70000FD030000F7
:1005A00070B54B005B0803430BD04B005C0D00267D
:1005B00033466542B341D417AD1AA34102DB002094
:1005C000014670BD12053018514170BD0EB5C217FD
:1005D000C10F5040CA0740180021054B02930192F9
:1005E00000910A460B4600F0F6F803B000BD00008B
:1005F000330400000EB505490291002100910A461E
:100600000B46019100F0E7F803B000BD3304000091
:1006100070B5CD0F4A0009030123090B1B051943CF
:100620000B4BED070024520D9A4201DA002070BDF9
:10063000074B34339A4203DC9A1A00F063F802E065
:100640000449511888402C43F1D0404270BD00004D
:10065000FF030000CDFBFFFF4A0009030123090B44
:100660001B051943094B10B5520D9A4201DA0020BF
:1006700010BD064B34339A4203DC9A1A00F042F85C
:1006800010BD03495118884010BD0000FF03000051
:10069000CDFBFFFF10B5002904DB0124E407404235
:1006A0008C412146002B04DB1C460123DB07524210
:1006B000A3418B4200D1824210BD000010B5002939
:1006C00004DB0124E40740428C412146002B04DB7B
:1006D0001C460123DB075242A341994200D19042BC
:1006E00010BD000010B5202A04DB0146203A9140DD
:1006F000002010BD914020239C1A0346E34019437B
:10070000904010BD10B5202A04DB0846203AD040A6
:10071000002110BD0B46D340D0402024A21A9140A6
:100720000843194610BD10B5202A06DBCB17084632
:10073000203A1041C1170B4306E00B461341D0404D
:100740002024A21A91400843194610BDF7B5009C19
:100750000F4600262578641C002D05D000F0A0F877
:100760000068405DC007F5D12B2D02D02D2D18D08B
:10077000641E39462046029A00F096F8002F04D0F5
:100780003968A14201D1009939607105022400291C
:100790000BDA4042002803DD01F00AFC0460A007E8
:1007A000FEBD012080020643E3E70028F8DA01F0ED
:1007B000FFFB04600048FEBDFFFFFF7F10B5002B6C
:1007C00008DA0024401C614192185B411A4301D1B0
:1007D0004008400010BDF0B51FB482B005460C00C3
:1007E00003D0084601F0CCFB02E001F0C9FB203049
:1007F0000246009021462846FFF774FF049B059AA5
:1008000004460F4618431143084314D018461043BA
:100810001BD0009840210A1A18460599FFF772FF6D
:1008200005460E46009A05990498FFF75BFF0843BA
:1008300005D0012004E02046394607B0F0BD002075
:10084000C11705430E432C43374300990E986305A7
:10085000401A7905E40A00220C43FD0A0A3002D549
:1008600000200146E9E70105101969410C9C0D9D26
:1008700000196941FFF7A2FFDFE70000064C0125E0
:10088000064E05E0E36807CC2B430C3C9847103438
:10089000B442F7D3FFF712FC644D0008844D000802
:1008A00000487047804B0008F7B582B0029C0027D3
:1008B0002078641C15460197302802D0002D15D0F1
:1008C00015E020780127641C782804D0582802D02D
:1008D000002D09D00BE0002D01D0102D07D10027ED
:1008E00010252078641C02E0082500E00A25002677
:1008F000009610E00099012769430818020C294668
:1009000080B2714300908E183804864201D30120D2
:1009100001902078641C294600F019F80028E9DAD3
:100920000398002805D0002F01D0641E00E0029C2F
:1009300004600198002806D001F03AFB0221016012
:10094000C81E05B0F0BD009930040843F9E73A2805
:1009500000D23038202302469A43412A01D3104660
:100960003738884201D30020C043704770B58C18D7
:100970000578401C6B075B0F01D10378401C2A11DE
:1009800006D10278401C03E006780E70401C491C1A
:100990005B1EF9D12B0705D40023521E0DD40B701A
:1009A000491CFAE70378401CCB1A921C03E01D781F
:1009B0000D70491C5B1C521EF9D5A142D8D30020F2
:1009C00070BD0000F0B50E46302148434D498FB050
:1009D0004418A18B002000F045FC20620025A5846E
:1009E0002046A17F283001F039F8474F6068B842AF
:1009F00004D10121880300F091FD06E043498842BB
:100A000003D10121480400F071FD606801F02CF968
:100A10000121606900F05EFDA27B217BA06800F0EF
:100A200014FBA27B617BA06800F00FFB208A618A27
:100A300008430090022168460171032141718571CC
:100A4000C5716946A06800F0C7FA0C2004960595A8
:100A5000069507950995089004A9606801F0A8F922
:100A60004021606801F0E6F801222949606801F040
:100A700089F960680121B84204D11B2268460270DE
:100A8000457006E0214A904203D11C22684602705C
:100A900041706846817000F0EBFC0121084600F0CF
:100AA00019FD0121084600F039FDA06900F054F954
:100AB0006068694624300090206A02950190A08BFE
:100AC0000390802005900320049500030695079568
:100AD00008950A950990A06900F0AEF90D490E48F5
:100AE00000F0CAF901224021606801F0B4F8012148
:100AF000A06900F025F90121606801F0A2F80FB0AB
:100B0000F0BD0000500000200038014000440040CB
:100B100004010400000800200000024003B430215A
:100B20004843074941184868C2691206FCD56A461D
:100B3000127902854868C1690906FCD502B0704780
:100B4000500000203021484310B514494418606813
:100B5000C169808CA169A08B4968401A0204120CFB
:100B6000A28404D020462830216A00F005FFA18C21
:100B7000206AFFF748FB0020A0840021A06900F054
:100B8000DFF8A169A08B48600121A06900F0D8F8C6
:100B90000349606801F050F810BD000050000020CB
:100BA00004010400F0B50025144F83B02E46142034
:100BB00068430096C41901960121E06800F08AFCA0
:100BC0002089009001216846017186710221C1715E
:100BD000032141716946606800F0FEF9207C21899B
:100BE0000028606807D000F041FA6D1C2D062D0E1C
:100BF000DDD003B0F0BD00F03BFAF6E7B000002016
:100C000070B50B4E00241C2060438519287C0028F9
:100C100009D0687C00F0E4FD6969884203D1298924
:100C2000686800F023FA641CE4B2042CEBD370BDB6
:100C3000CC000020F0B50F461C2148431B4985B06D
:100C4000002644180296039615460121E06800F03C
:100C500041FC2089029001216846017386730221BC
:100C6000C1730321417302A9606800F0B5F92189BD
:100C7000606800F0FBF939460D48FFF751FA064667
:100C80007543A06128466421FFF74AFA301A606173
:100C900000F0CAFD6074074901940091002301220D
:100CA000A16900F06DFD05B0F0BD0000CC00002092
:100CB000A08601005D19000870B51C225043054A4A
:100CC00085180846AC6964216043FFF729FA201AA9
:100CD000686170BDCC0000201C21484310B5064956
:100CE00044182189606800F0C3F9607C00F0B2FD0F
:100CF0000120207410BD0000CC00002010B50C486D
:100D00000A490068FFF70CFA0A49401E88420CD8CD
:100D10000949486109480722C3691B021B0A4C04A0
:100D20002343C361002088610A6110BDA0860100D1
:100D300014000020FFFFFF0000E000E004ED00E0F1
:100D40000029016802D00122114301E0014A11404B
:100D500001607047FEFF0000F0B40168274A1140AF
:100D600001600021016041608160C160244B254920
:100D70000F2298422DD0244CF023A04202D1486883
:100D8000184330E0214D0F242402A84229D0204EE0
:100D90002501B04202D14868284324E01D4F0F26A8
:100DA0003604B84202D1486830431CE01A4FB842BA
:100DB00003D148680F22120505E0184FB84204D14C
:100DC00048680F22120610430DE0154F1549B8422E
:100DD00001D14868F7E7144A9042D0D0134A9042B4
:100DE00004D1486820434860F0BC7047104A9042E4
:100DF000D1D0104A9042D6D0F0BC7047FEFF000020
:100E000008000240000002401C0002403000024086
:100E100044000240580002406C0002408000024042
:100E200008040240000402401C0402403004024056
:100E3000440402405804024030B403680D4A0C6A6E
:100E400013408A684D6922430C692C4322438C6904
:100E50002243CC6922434C6A22438C6A22431A43C0
:100E60000260CA6842600A6882604968C16030BC3A
:100E7000704700000F80FFFF10B48030826A0B0FB4
:100E80009C000F23A3409A438262826A09010909E8
:100E90000A43826210BC70470149C8607047000075
:100EA00000200240F0B50B2706463F04384600F00C
:100EB00067F804280FD1084C2069022528432061D7
:100EC00066612069402108432061384600F058F8E7
:100ED0002169A9432161F0BD002002400849042096
:100EE000CA68D20701D001207047CA68D20601D56E
:100EF00002207047C9684907FBD5032070470000EE
:100F000000200240024801698022114301617047BC
:100F100000200240F8B5064600200B273F04009051
:100F20000D46384600F02CF8042815D10B4C2069EA
:100F30000121084320613580384600F021F804285B
:100F400006D1B61C280C00963080384600F018F800
:100F50002169490849002161F8BD000000200240D4
:100F600004480169090603D503494160034941600A
:100F7000704700000020024023016745AB89EFCD98
:100F800014490246CB680420DB071FD1CB68DB067F
:100F900001D5022016E0C968490713D5032011E0E6
:100FA000CB680420DB0701D0012008E0CB68DB061A
:100FB00001D5022003E0CB685B0700D50320521E59
:100FC000012803D0002A00D105207047002AE7D16C
:100FD000FAE7000000200240F0B4002201273B465F
:100FE0000C6893401C409C422AD10C79012C01D002
:100FF000022C12D1866855000324AC40A6438660BB
:101000004C79AC4085682C43846084889C43848000
:1010100084888B7993401C438480056854000323A3
:10102000A3409D4305600D790668A54035430560E2
:10103000C5689D43C560CB79A340C4682343C360A2
:10104000521C102ACBD3F0BC70474B07DB0E9A40E2
:10105000C90810B489000818016A0F249C40A143F4
:101060000162016A1143016210BC7047018570473B
:1010700081617047FEE7000010B584B00921134874
:1010800002F036FA002819D100900190029010A0C9
:1010900002F0E6FB002813D0FFF7E3F8401C0446FB
:1010A00002460EA10FA003F073FA224616A168466D
:1010B00003F080FA694606A002F002FD04B010BDFC
:1010C00012A13E22174803F063FAFEE7904A000897
:1010D000626F6F745F74696D657300005B4B56449B
:1010E000425D0000253130732020202054686520A7
:1010F00073797374656D20626F6F742074696D65A8
:10110000733A25640D0A0000256400002E2E5C52FF
:1011100054455F506F72745C5254455F506F7274E7
:101120002E6300001C17000810B507480178491FFE
:101130000906090E017001D164210170C9B20020B5
:10114000FFF7BAFD10BD00000000002010B4C0433E
:10115000002A0BDD074B0C78491C44402406A40DE3
:101160001C59000A6040521E002AF4DC10BCC04327
:101170007047000040460008F8B5002920D08A07D3
:1011800002D089088900091DC500294800242E18AD
:101190008808800022468646002A13D0101D126857
:1011A00073685208121822484059C018131D9842FB
:1011B00038D9002A36D014680020E70705D02EE081
:1011C0001C48F8BD1A484259F3E767080B468F429E
:1011D00025D39446980701D073461B1D1C1D384625
:1011E000A74200D13B4698420FD0101DC01804689A
:1011F00067466408640004603F68E4077F08FF1ADC
:10120000E40F7F00083F3C430460604600785B00C9
:10121000C007C00F1843012318431060101D0400BD
:10122000BAD003E004A106A003F0B2F92046F8BD4D
:101230003C000020380000205B4D454D5D00000063
:101240002531307320202020436F756C646E277425
:1012500020616C6C6F63617465206D656D6F727970
:101260000D0A000070B50D46FFF786FF040003D09D
:101270002946FEF7C8FF03E002A104A003F088F9A5
:10128000204670BD5B4D454D5D000000253130733B
:1012900020202020436F756C646E277420616C6C75
:1012A0006F63617465206D656D6F72790D0A000062
:1012B000F8B50546184881422AD0002928D00C1FCD
:1012C00020682146400840002060284602F072FC59
:1012D00000281DD01149EA0055180368DE0717D110
:1012E00026685B087708FB185B00F607F60F0833E3
:1012F0003343236000280CD0031D00686E6840084B
:10130000C0188B589E19031D9E4201D90028E4D1B4
:10131000F8BD8858FAE70000380000203C000020A3
:10132000C3000448C15019184A60C0585200083A16
:10133000026070473C000020F8B500253E4F0C4687
:101340000646002906D0201F0068C10706D0BC420F
:1013500000D04508954203D12046F8BD0024F9E7A6
:10136000AA4223D2201F910702D092089200121D98
:101370000168131D4908994200D10A4691420ED0D6
:10138000011D89180B685B085B000B600468DB07B4
:101390006408A41ADB0F6400083C23430B60017847
:1013A000C907C90F5200114302C0F8BD11463046AB
:1013B000FFF7E2FE0090002838D0002C3AD0002D34
:1013C00038D02A462146FEF705FFBC4232D0241F02
:1013D00020682146400840002060304602F0EAFBC9
:1013E000002827D0154BF200D5180168CE0717D179
:1013F00026684908770879184900F607F60F08317A
:101400003143216000280FD0011D00686E6840083C
:10141000401899588E19011D8E4201D90028E4D137
:101420000098002802D005E09858F7E704A106A02C
:1014300003F0AEF80098F8BD380000203C00002012
:101440005B4D454D5D00000025313073202020208C
:10145000436F756C646E277420616C6C6F6361748C
:1014600065206D656D6F72790D0A0000FEE7000062
:1014700030B4837801210278002B15D094080E4BEC
:10148000A400E41823689207D50EFF22AA409343D4
:1014900042789207120EAA401A4322600078C006D2
:1014A000C00E8140054803E0D006C00E81400448CC
:1014B000016030BC7047000000E400E000E100E0A3
:1014C00080E100E0FEE770470149086070470000D6
:1014D00044000020044A0029516901D0014300E082
:1014E000814351617047000000100240044A002906
:1014F000D16901D0014300E08143D1617047000010
:1015000000100240044A0029116901D0014300E0A3
:10151000814311617047000000100240044A002915
:10152000916901D0014300E081439161704700005F
:1015300000100240044A0029D16801D0014300E0B4
:101540008143D16070470000001002400348416AA7
:101550000122120611434162704700000010024050
:10156000F8B5564D0446686800210C22544E1040D0
:1015700005D0042803D0082803D00C281AD02660F0
:101580001AE06968686803228902D2030F0F1040CD
:10159000BF1C00280AD0E86A0107090F3046491C21
:1015A000FEF7BEFD78430146216005E04548394617
:1015B0004143F9E7444820606868444F0006000F43
:1015C0003B5C20680246DA4062606B685B055B0F3B
:1015D000FB5CDA40A2602B6BDB0502D43C4BE36082
:1015E00006E06B685B0401D4530800E09308E360F5
:1015F0002B6B5F06374B02D4374F276100E0236126
:101600002F6BFF0601D4666100E060612F6BBF079E
:101610000ED02F6BBF07BF0F012F0BD02F6BBF0753
:10162000BF0F022F08D02F6BFF43BF0706D006E085
:10163000A26104E0A06102E0A36100E0A6612F6B5B
:10164000BF03BF0F0FD02F6BBF03BF0F012F0CD0F5
:101650002F6BBF03BF0F022F09D02F6BBF03BF0F2C
:10166000032F06D006E0E26104E0E06102E0E361FE
:1016700000E0E6612F6B3F03BF0F0FD02A6B120310
:10168000920F012A0CD0286B0003800F022809D08A
:10169000286B0003800F032806D006E0226204E0D6
:1016A000206202E0236200E02662286B000602D47A
:1016B00005486062F8BD6162F8BD0000001002409C
:1016C00000127A0000093D00006CDC0201000020DD
:1016D000809FD500008000001280000000230B498D
:1016E00042090DD0012A0DD0022A0DD0496BC00647
:1016F000C00E012282400A4200D0012318467047E2
:101700000968F4E7096AF2E7496AF0E70010024065
:101710000A46014601A002F03BFFFEE75B4153533E
:101720004552545D2020202057726F6E67207061F3
:1017300072616D65746572732076616C75653A20AF
:1017400066696C65202573206F6E206C696E65205C
:1017500025640D0A0000000010B50122D2020449E0
:101760000020FFF7DDFD00F069F8FFF7ACFE10BDCB
:101770001002002010B501460020FFF7CFF910BD80
:10178000FFB581B0154D0C460A9F0B9E286800F0EE
:10179000B7FB102802DB012005B0F0BD14210020AA
:1017A000FFF760FD014601984870087842080398E9
:1017B0005200C007C00F0243FD2002400498C0073A
:1017C000800F02430A704C608C60CF600E61286805
:1017D00000F098FB002005B0F0BD0000480000209C
:1017E00070B5054607482946006800F05DFB0446D1
:1017F0004078A84204D04121C90003A0FFF788FF28
:10180000A06870BD480000202E2E5C5254455F43F6
:101810006F72655C5254455F526F756E64526F62B1
:10182000696E2E630000000010B50348006800F0E8
:1018300067FBC0B210BD00004800002010B50021B9
:10184000034800F035FB02490020486010BD00004D
:101850004800002070B50E4C0546206800F050FB93
:10186000A84201DA022070BD2946206800F01CFB66
:1018700004464078A84204D0FF21CE3105A0FFF7EE
:1018800047FF2078022108432070002070BD00002F
:10189000480000202E2E5C5254455F436F72655CF9
:1018A0005254455F526F756E64526F62696E2E635B
:1018B0000000000070B5164D0026286800F020FBDF
:1018C000002823DD3146286800F0EEFA044600784F
:1018D000800714D5A068002811D1E16820698847E5
:1018E0006068A0602078C00709D13446286800F0FD
:1018F00007FBA04203DB2146286800F0ADFA761C06
:10190000F6B2286800F0FCFAB042DBDC70BD0000E3
:101910004800002070B50F4C6068401C60600025D6
:10192000206800F0EDFA002813DD2946206800F059
:10193000BBFA0178890705D58168002902D0816842
:10194000491E81606D1CEDB2206800F0D9FAA842F2
:10195000EBDC70BD48000020FEE7000010B5007809
:101960001C2148430349401801894068FFF780FB68
:1019700010BD0000CC00002070B50E4604468178F2
:1019800040781546401CFEF7CBFB2078814205D1FC
:1019900015A118A002F0FCFD012070BD2946002011
:1019A000FFF7EAFB62786168D200885022786168AC
:1019B000D20089582A4600290FD03146FEF70AFC8A
:1019C00060786168C000001D0D526078A178401CED
:1019D000FEF7A6FB6170002070BD03A110A002F00D
:1019E000D7FD022070BD00005B53545245414D5D50
:1019F0000000000025313073202020204E6F20652C
:101A000078747261207175656E6520666F722074DE
:101A10006869732073747265616D0D0A00000000BF
:101A200025313073202020204E6F2065787472613C
:101A3000206D656D20666F72207468697320737401
:101A40007265616D20776974682064617461206CCF
:101A5000656E74683A25640D0A00000070B50025B3
:101A60000570457081700446C9002846FFF784FB65
:101A70006060002803D1292108A0FFF749FEA07863
:101A800000280AD00021CA006368401E9D50121D24
:101A90006368491C9D520028F5D170BD2E2E5C5202
:101AA00054455F436F72655C5254455F5374726571
:101AB000616D2E630000000010B5084C7D21206888
:101AC0004901401C2060884204D17F2000F038FA90
:101AD00000202060FFF71EFF10BD0000C4000020A2
:101AE0002848016801221204914301600168012223
:101AF000114301604168244A114041600168234A52
:101B00001140016001680122920491430160416823
:101B10003F22120491434160C16A09090901C1626F
:101B2000016BFF22543291430163416B4908490024
:101B3000416300218160164A1121116041684160B2
:101B40004168416041687F22D2039143416041680E
:101B50000522D2041143416001680122120611439B
:101B6000016001688901FCD54168890889004160EC
:101B7000416802221143416041680907890F022927
:101B8000FAD17047001002400CB8FFF8FFFFF6FED4
:101B90000020024010B50D4C0121204600F01DF838
:101BA000002812D00121204600F014F8084C7D21B5
:101BB00060684901401C6060884204D17F2000F0C9
:101BC000BFF900206060FFF7A5FE10BD00040040D3
:101BD000C4000020C94301827047038A0022808923
:101BE0000B400840002B02D0002800D001221046F4
:101BF0007047000010B50549054800F0A5F8002819
:101C000002D00020FEF79EFF10BD0000040104007A
:101C10000038014010B50549054800F095F8002846
:101C200002D00120FEF78EFF10BD00000401040069
:101C300000440040016270470A0C0121914001629A
:101C400070470029016802D00122114301E04908D0
:101C5000490001607047002A826801D00A4300E011
:101C60008A438260704700002F4910B5884207D12F
:101C700001218C032046FFF75DFC0021204650E047
:101C80002A49884209D101214C042046FFF73AFC39
:101C900000212046FFF736FC10BD2549884209D1B6
:101CA00001218C042046FFF72DFC00212046FFF780
:101CB00029FC10BD1F49884209D10121CC042046CE
:101CC000FFF720FC00212046FFF71CFC10BD1A493D
:101CD000884209D101210C052046FFF713FC0021A1
:101CE0002046FFF70FFC10BD1449884206D10121A0
:101CF0002020FFF71FFC0021202012E0104988421D
:101D000006D101214020FFF715FC0021402008E00A
:101D10000C498842E7D101218020FFF70BFC00210C
:101D20008020FFF707FC10BD003801400044004050
:101D300000480040004C00400050004000140140AA
:101D400000180140001C014030B40A04130E0122A7
:101D5000144600258C40012B0FD0022B10D0836835
:101D60002340090CC0698A401040002B02D0002893
:101D700000D00125284630BC704703682340F0E7B7
:101D80004368EDE710B40B041C0E01238B40022CBA
:101D900002D0032C02D002E0001D00E008300168F0
:101DA000002A01D0194300E09943016010BC70473C
:101DB00030B5044600688BB00D46400840002060F6
:101DC0006068032109038843A968014361602068B2
:101DD0001C49EA680840696811432A6902431143B3
:101DE0002160A06803210902884369690143A16059
:101DF0006846FFF7B5FB1448844201D106980AE013
:101E00001248844201D1079805E01148844201D16B
:101E1000089800E0029821680904296800D540006C
:101E2000FEF77EF92A6852088A4200D8401C2168D1
:101E3000090404D50107074A490F10400843A0814F
:101E40000BB030BDF3E9FFFF003801400044004013
:101E500000480040F0FF000070B504468368880029
:101E600022681D58012A0ADD561E8E4207DD511ACE
:101E70008A00011D59181818121FFEF7ABF92068C7
:101E80000021401E2060A268800011502068A168D7
:101E9000820004202056FFF74FFAA0600420294654
:101EA0002056FFF705FA70BD8068890040587047DA
:101EB00070B50C460546012903DB0F2109A0FFF789
:101EC00027FC601C03D1102106A0FFF721FC0C2188
:101ED0002046FFF7C7F90471002101608160286086
:101EE00070BD00002E2E5C5254455F436F72655CDE
:101EF0005254455F566563746F722E630000000094
:101F00000068704770B5044600680D4682000420E2
:101F10002056121DA168FFF70FFAA0602168890002
:101F200045502068401C206070BD0000802108439F
:101F30000149086070470000002C00407047000015
:101F400040060249400E086070470000002C004027
:101F5000034A5168FF23813399430143516070471D
:101F6000002C0040054981B04A684006D209D201E0
:101F7000400E10430090486001B07047002C0040B4
:101F80002021020C01D010211046020A01D0104677
:101F90000839020901D01046091F820801D01046F5
:101FA000891E420801D0881E7047081A7047000039
:101FB000004870473C01002002E008C8121F08C119
:101FC000002AFAD170477047002001E001C1121FBA
:101FD000002AFBD170470000FFB589B0129C139D09
:101FE0000027FF4322462B4620462946159EFEF732
:101FF00051FB0DD13A46B74B20462946FEF75EFB12
:1020000006D33A46B44B20462946FEF743FB0CD292
:102010001499169809AF03960195009402910490C3
:102020000FCF00F087F90DB0F0BD00221346204617
:102030002946FEF72FFB04D201200790C007454038
:1020400001E0002007901698400501D40620149066
:102050006A00A24B520DD2182F03A1493F0B0592E3
:102060002046394300229F4BFEF7ACF99E4A9F4B16
:10207000FEF7B6F9074601910598FEF7A7FA9C4AC4
:102080009C4BFEF7ADF99C4A9C4BFEF7F7F83A469D
:10209000019BFEF7F3F8FEF7BBFA0746FEF796FA48
:1020A000974A984B01910090FEF79AF90022964BBF
:1020B000FEF7E4F8FEF7ACFA0590FEF787FA934ACC
:1020C000934BFEF78DF902910490924A924B01993D
:1020D0000098FEF785F9029B049AFEF773F9024611
:1020E0000B4601910090FEF77BF90490059803914F
:1020F00001057B48002208180290884B0399049838
:10210000FEF7D6F90022864BFEF7B8F802460B46DA
:1021100003990498FEF7CCF90022824BFEF7AEF843
:1021200002460B4603990498FEF7C2F90591089000
:10213000012100208907019B009AFEF743F9059BC6
:10214000089AFEF79BF803910490012201990098E8
:10215000FEF726FA039B049AFEF7AAF90022604BC9
:10216000FEF78CF80022029BFEF73AF900900191ED
:1021700002460B460591049020462946FEF78AFA4E
:1021800008D20022664B7F1E05990498FEF790F94D
:102190000191009038466330C72801D2042000E046
:1021A000052005901698000527D55F4A5F4B20460D
:1021B0002946FEF783FA17D800225D4B20462946B0
:1021C000FEF768FA10D21498B84202DDC01B401E18
:1021D00000E000201490012116988902084316900F
:1021E00000200746059008E01498002805D01698AE
:1021F000400502D51498401E14900598864202D9D5
:102200000599701A00E0002004901698800704D504
:102210000598002801D000200490002F07D0204608
:102220002946019B009AFEF743F904460D460B9898
:1022300008900798002802D00120C00745400121DE
:102240001698C9028843049A149904900195009441
:102250000392029109A80FC800F06CF80446059893
:10226000002833D01698651C800601D5452000E073
:1022700065202246099C0C9B0A99A04705980522D7
:10228000401E00210A230490F80F02930592039147
:10229000002F00DA7F42009701902A460C9B0A9992
:1022A000099800F028FA0446169880070ED5089879
:1022B000201AB0420AD22246641C099D20200C9BA1
:1022C0000A99A8470898201AB042F4D320460DB0C6
:1022D000F0BD0000FFFFEF7FFFFFEFFF01FCFFFFFE
:1022E0000000F03F0000F83F61436F63A787D23FD3
:1022F000FB799F501344D33FB3C8608B288AC63FF5
:1023000071A379094F930A400000E03FEF39FAFECC
:10231000422EE63F1655B5BBB16B024000002C4083
:1023200000002440000018402D431CEBE2361A3F09
:1023300080842E41FFB593B01CAAACCA0026F64398
:10234000002410461946FEF7A5F90CD02098032169
:10235000A3A213AC02970092019103900FCC00F05E
:102360000EFA17B0F0BD32469E4B1D991C98FEF731
:1023700091F90CD2209804219BA213AC02970092F1
:10238000019103900FCC00F0FAF917B0F0BD32467E
:10239000974B1D991C98FEF791F90ED22098410792
:1023A00002D5042193A201E0032194A213AC029769
:1023B0000092019103900FCC0EE10022904B1D99E9
:1023C0001C98FEF77BF906D300228E4B1D991C98B2
:1023D000FEF760F90DD22098049003971D991C9880
:1023E000029513AC019100900FCCFFF7F5FD17B0EB
:1023F000F0BD0020024603460F901D991C98FEF781
:1024000049F906D201200F9001221D98D2075040B1
:102410001D902098400508D4062506E0302106A826
:102420000155641C6D1E202C01D2092DF6D81D9972
:102430001C98FEF7EDF80490FEF7C8F81D9B1C9A57
:10244000FDF7C6FFEA00704B11929B181A685B6893
:10245000FDF7C6FF00910E90FEF7FEF80646FEF768
:10246000C9F8009B0E9AFDF7B3FF0022674B01915C
:102470000090FEF723F910D2761C3046FEF7BAF82A
:10248000614B119A9B181A685B68FEF717F911D80F
:1024900004980026401C04900CE000225B4B01993C
:1024A0000098FEF7F7F805D3F007C00F401E304242
:1024B00000D1761C002D1AD0202C40D20120009093
:1024C0002020001B0190012833DB0A2130466D1EBD
:1024D000FDF726FE06AA30311155641C060026D0F1
:1024E00000980199401C00908142EEDA1FE00498A8
:1024F000FEF76CF81D9B1C9AFDF76AFF06460D4619
:102500000022424BFEF7DAF806D900223F4B304654
:102510002946FEF7D3F812D20498C0070FD00498CA
:10252000401C04900BE0302006A90855641C202CA8
:1025300005D26D1EF7D22E2106A80155641C202C51
:1025400012D220200125061B012E0DDB0A21049842
:10255000FDF7FCFD06AA30311155641C04900028DB
:1025600002D06D1CAE42F1DA2098800714D4209876
:10257000C00711D0002F06D020980C2108400F99D9
:10258000084300D07F1E302106A8BC4204D2202C74
:102590001AD20155641CF8E7202C15D20F98002898
:1025A00004D02D2106A80155641C0DE02098400799
:1025B00003D52B2106A8015505E02098000703D577
:1025C000202006A90855641C209806A913AD02977F
:1025D0000194009103900FCD00F0D1F817B0F0BD39
:1025E0006E616E00FFFFEFFF666E692D0000000058
:1025F000FFFFEF7F666E692B00000000666E6900CA
:1026000065CDCD4165CDCDC1404A00080000E03F19
:10261000FFB585B09C4696461499119F139D0E9C5C
:10262000109B129A0F988E0719D4002D06D0CE0752
:1026300004D00C260E401E4300D06D1E3026904262
:1026400007D2202805D22654401CF8E7302626540D
:10265000401CCE0703D0A84201D22028F6D3CE06D4
:102660002AD54E050BD4002809D0904201D0A842AB
:1026700005D1401E03D0102F03D1401E04E0102FBF
:1026800002D0022F0ED012E08A0605D4202826D2CE
:1026900078262654401C0AE0202820D258262654AA
:1026A000401C04E020281AD262262654401C202810
:1026B00015D230262654401C202810D2002B03D0DF
:1026C0002D222254401C0AE04A0703D52B22225413
:1026D000401C04E00A0702D520222254401C01902D
:1026E000009403916346724602950699059800F09E
:1026F00046F809B0F0BDFFB591B01A9800241C9FB0
:102700001F9D002801D110218D43690508AE01D518
:10271000002814D03946FDF703FDC9B20A2901D2B9
:10272000303106E0AA0601D5412200E061225118AD
:102730000A393155641C002801D0202CEAD31D9899
:1027400004901E991B980695059102900397009698
:10275000019411A80FC8FFF75BFF15B0F0BD9A42B6
:1027600000D2885470470000002804D0024909684C
:10277000002900D008477047440000207047FFB58B
:1027800081B007460D980B9D1446009280070DD12D
:102790000C982E46854209D22246641C2020049BB8
:1027A0000299B8470C98761C8642F5D3002D09D0C3
:1027B0002246641C0A986D1E405D049B0299B8472E
:1027C000002DF5D10D9880070FD50098211A0C988F
:1027D00081420AD22246641C2020049B0299B847F9
:1027E00000980C99201A8842F4D3204605B0F0BD19
:1027F000FFB5A1B00546229800271C46002800D14D
:10280000FE4D2078002872D0C0B2252805D03A4667
:102810007F1C239B2299A84711E300200423082250
:102820000221019037E020782B2826D004DC2028D4
:1028300028D0232804D12AE02D2819D0302811D0FF
:10284000C0B202460026303A092A26D820460A217C
:1028500000784E43303E641C8619207830380928B1
:10286000F4D926E0019801263043641C0190DAE790
:1028700001980843641C0190D5E701981843641C33
:102880000190D0E701981043641C0190CBE70198B8
:10289000102630430190641CC5E72A2809D12A98E4
:1028A00040C82A90002E03DA01980843764201902E
:1028B000641C0020009020782E2823D1012101984B
:1028C0008902084301906078641C01463039092967
:1028D0000ED8002021460A22097850433038641C63
:1028E0000818217830390929F4D900900AE0ABE2C0
:1028F0002A2807D12A9802C82A90002900DC002142
:10290000641C009120786C280AD004DC682817D059
:102910006A2829D10DE0742820D07A2824D11DE01E
:10292000FF2101980131084301906078641C6C28F4
:102930001AD10121019849020843641C019013E057
:1029400001988021084301906078641C68280BD1AD
:10295000019840210843641C019005E0FF21019883
:1029600001310843641C0190207865286FD012DC87
:10297000582827D008DC25286AD0452867D0462863
:1029800067D0472819D190E162281BD063287DD0F9
:10299000642812D116E0702879D008DC662858D057
:1029A000672854D069280DD06F2806D10AE0732813
:1029B0006ED0752806D0782804D03A467F1C239B19
:1029C00022994BE278280CD058280AD06F2841D0A1
:1029D000622841D00A218C4601991022914301912D
:1029E00003E010218C46582839D0692805D0642886
:1029F00003D001990C22914301910199490503D516
:102A0000019949084900019169282DD064282BD0EB
:102A1000019880057ED52298089023980A902A98DC
:102A20000B97C01DC208D2005168106808322A9264
:102A300000220C92002362460E930492009A0392A5
:102A400002960246019F1E460A4371D0ABE02CE17C
:102A5000FFE10EE1082100E002218C46C9E701995F
:102A6000202211430191C4E70198800561D52A987D
:102A7000C01DC108C9004A68086808312A91229916
:102A80000C970791239900230B9102E035E1BFE1F8
:102A900064E119461B1A914101DA114602E0002156
:102AA00040429141002A01DA012200E0002208920E
:102AB000624600230492009A06930392029602460D
:102AC000019F1E460A4301D1102297437A0502D581
:102AD00002460A4317D0069B049AFDF74BFBD2B27D
:102AE0000A2A01D2303206E0BB0601D5412300E0BC
:102AF00061239A180A3A10AB9A550246761C0A438B
:102B000001D0202EE7D3039A0499029806970492E5
:102B1000039100E07AE005900898029010A90196D0
:102B2000009128460B9B0C9A0799FFF771FDE2E094
:102B300037E00198C00515D52A99634601C92A9145
:102B400000990391019AC10F0496029305920028FF
:102B500025DD009001913A462846239B2299FFF7F4
:102B6000CAFDC8E00198400604D52A990878091DD5
:102B70002A910AE001982A99000604D50888091DBF
:102B800000B22A9101E001C92A910099039163469C
:102B9000019AC10F0496029305920028D9DC4042A5
:102BA000D7E7102297437A0502D502460A4317D089
:102BB0000E9B049AFDF7DEFAD2B20A2A01D2303215
:102BC00006E0BB0601D5412300E061239A180A3ACA
:102BD00018AB9A550246761C0A4301D0202EE7D343
:102BE0000298039A0499059003910C98069718A9E6
:102BF0000290049201960091284601E07D2700088A
:102C00000A9B0B9A0899FFF703FD74E00198C00531
:102C100013D50098624601990292039005912A9873
:102C2000049604C80021009201912A903A46284651
:102C3000239B2299FFF75FFD5DE00198400604D5D4
:102C40002A990878091D2A910AE001982A99000614
:102C500004D50888091D80B22A9101E001C92A9192
:102C600000996346019A039104960293059200210C
:102C70006FE7462803D101982021084301902A9844
:102C8000019AC01DC0080099C000039604920291E9
:102C9000426801680830009101922A903A4628461D
:102CA000239B2299FFF746FB25E0672801D04728A0
:102CB00004D101220199D20211430191452801D08A
:102CC000472803D101982021084301902A98019AAE
:102CD000C01DC0080099C00003960492029142688A
:102CE00001680830009101922A903A462846239BB9
:102CF0002299FFF771F90746A1E0012000900198A1
:102D000080070ED402200090012E0AD93A467F1C7B
:102D10002020239B2299A8470099481C0090B1428B
:102D2000F4D32A993A460878091D2A917F1C239BDF
:102D30002299A8470198800769D50098411C009105
:102D4000B0427CD23A467F1C2020239B2299A84780
:102D50000099481C0090B142F4D370E02A9804C84E
:102D60002A9000980492002801D0014601E0002139
:102D7000C943104600E0401C0378002B01D0491ED7
:102D8000F9D2801A03900198400505D5039900985F
:102D9000814200D2084603900198800718D4039915
:102DA000481C0390B14213D23A467F1C2020239B3B
:102DB0002299A8470399481C0390B142F4D307E035
:102DC00004993A46491C04917F1C239B2299A847E9
:102DD00004980078002807D001994905F0D500999A
:102DE000491E0091491CEBD10198800727D5039813
:102DF000411C0391B04222D23A467F1C2020239BE3
:102E00002299A8470399481C0390B142F4D316E0D5
:102E10000198212210431023009A08210293059063
:102E200004912A98039204C80021009201912A90EB
:102E30003A462846239B2299FFF75DFC0746641C0F
:102E40002078002800D0DFE42398874208D23A4651
:102E500007E03A467F1C2520239B2299A847EEE7EE
:102E6000421E034600202299A847384625B0F0BDEF
:102E70000378002B0CD0036909688B4208D981784C
:102E8000012907D0022903D104494978002901D03A
:102E90000020704740691060012070472800002022
:102EA00010B504460178407886B0002901D0032887
:102EB00002D0012819D015E02346A2780C330FA1C7
:102EC000104801F065FB204600F0F4FF002805D013
:102ED0000AA10D48626801F05BFB0CE007A10BA0A2
:102EE00001F056FB002006B010BD052306226946FE
:102EF000E06A01F071FB012006B010BD5B4B564447
:102F0000425D0000844B00086C4C00082531307392
:102F1000202020205265636F766572792074686581
:102F200020454E56207375636365737366756C2E0A
:102F30000D0A000010B50178002903D0807803281D
:102F40000CD010E009A10B4801F022FB00F045FD78
:102F500000F0F6FB00F040FD012010BD0649012005
:102F6000487000F0FBFE002010BD00005B4B564493
:102F7000425D0000D84B000828000020FFB58DB04E
:102F8000044645691F4600260E98FDF754F920288F
:102F900007D9202281A183A001F0FAFA042011B000
:102FA000F0BDFF2224216846FDF726F90E98FDF7B3
:102FB00042F9C0B269460877C01C8108F81C800835
:102FC0008900800008182430F721890008970590AF
:102FD000884206D971A181A001F0DAFA062011B069
:102FE000F0BD681C06D12046059901F071F8054630
:102FF000401C7DD061780598012902D0022907D0B4
:1030000015E00223042209A9606801F0E5FA0CE04A
:103010002169442902D3081A442808D20323042230
:1030200009A9606801F0D8FA012604007ED1FF21C9
:1030300008A801710822002007A9FEF787F806906A
:103040006846027F0E990698FEF780F8069068465B
:10305000007FC11C890889000C1A641E07D3012255
:1030600009A90698FEF772F80690641EF7D2089A2E
:103070000F990698FEF76AF8069008980899C01C00
:1030800080088000441A641E07D3012209A906980B
:10309000FEF75CF80690641EF7D26F460123062205
:1030A0003946284601F098FA002801D0044607E086
:1030B0003946284610221431143000F0DBFC044657
:1030C000002C68D1284624300A900E980990684652
:1030D000047F042001460B90FF220CA8FDF78CF81A
:1030E000A708BF003A4609990A9800F0C3FC00E01F
:1030F00050E0E21B00280CD1002A0CD009983918A6
:103100000CA8FDF767F80A980CA938180B9A00F07C
:10311000B1FC04003FD16846007FC01C80088000DD
:10312000401924300A900F98099000E033E0042001
:1031300001460C90089CFF220BA8FDF75DF8A7083C
:10314000BF003A4609990A9800F094FCE21B002857
:103150000CD1002A0CD0099839180BA8FDF73AF8C1
:103160000A980BA938180C9A00F084FC040012D1BC
:10317000022306226946284601F02EFA04000AD1ED
:10318000002E08D005A120A001F002FA2A49012052
:10319000487000E00624204611B0F0BD5B4B564459
:1031A000425D000025313073202020204572726F6F
:1031B000723A2054686520454E56206E616D652038
:1031C0006C656E677468206973206D6F726520741A
:1031D00068616E2025640D0A0000000025313073FF
:1031E000202020204572726F723A20546865204575
:1031F0004E562073697A6520697320746F6F206260
:1032000069670D0A0000000025313073202020205E
:10321000547269676765722061204743206368655F
:10322000636B2061667465722063726561746564A6
:1032300020454E562E0D0A002800002070B594B08F
:1032400016460C0005460ED100236A461371244A27
:103250000146009202A801AA00F0C4FC6A46107957
:10326000002810D002ACE06A002E14D004230622FD
:103270000FA901F0B1F90546E06A860AB6020C36DC
:10328000002D0FD029E02A4616A118A001F080F9E0
:10329000042014B070BD032306220FA901F09CF98D
:1032A0000546E9E70FAC30460C22214600F0CCFB86
:1032B0000021032202204301DB08E35C002B02D043
:1032C000491C401EF7D2501A012806D102230422BD
:1032D0000FA9304601F080F90546284614B070BDAC
:1032E000113D00085B4B5644425D000025313073B0
:1032F000202020204E6F7420666F756E6420272575
:10330000732720696E20454E562E0D0A00000000DE
:10331000F0B50446007899B000286ED0A078022855
:1033200001D0032869D160680323042216A90C3058
:1033300001F052F90027FF430B976078012861D014
:1033400065680DAE243514223146284600F07CFB1A
:103350000021052204204301DB08F35C002B02D08E
:10336000491C401EF7D28A424BD00B956D1C49D0A8
:1033700003A80D90684600F00BFF6846007800280F
:1033800011D068464078022801D003280BD1684646
:1033900000F090FD002806D06846827834A136A05F
:1033A0000D9B01F0F5F8607801282AD00B98401C9D
:1033B00024D0012062680B9980021018814220D825
:1033C000019A8E18B0421CD3002A1AD00EAD304696
:1033D0001422294600F038FB002105230420420175
:1033E000D208AA5C002A02D0491C401EF7D28B42A8
:1033F00007D00B96761CBDD104E035E06668243614
:10340000E4E70B976568A80504D04B21C90028A004
:10341000FEF77EF901218902284600F0DFFA002834
:103420001DD1FF2224210DA8FCF7E6FE0DA80C21DA
:10343000FF22FCF7E1FE002608A8067510A80C2163
:10344000FF22FCF7D9FE10A806701F481390701ECB
:103450001590149724220DA9284600F00BFB04A117
:103460001AA0626801F094F8002019B0F0BD0000C5
:103470005B4B5644425D00002531307320202020F4
:103480004572726F723A204D6F766564207468657C
:1034900020454E562028252E2A732920666F72203B
:1034A0004743206661696C65642E0D0A00000000C8
:1034B0002E2E5C5254455F436F72655C5254455FDB
:1034C0004B5644422E63000045463430253130735C
:1034D00020202020436F6C6C65637420612073652D
:1034E00063746F7220403078253038580D0A000020
:1034F000F0B59DB00E46050003D1624962A0FEF70B
:1035000007F9674C2078002802D000201DB0F0BDDC
:10351000644AA660E560131463A165A0626001F0CF
:1035200037F8002600F058FA0027704800903B4614
:103530003A463946019710A800F0D4FF6C4D00239D
:103540001A46194602A8009500F04CFB6078002846
:1035500002D000F003FCF2E700F03FFA03200996E6
:103560000A906A461774664A009262A10BAE04255F
:103570000CA8002304AA00F035FB6A46107C002842
:103580003FD00E98042800D205462A4631461898A6
:1035900000F05AFA002D34D00A9B0B9A9A426BD055
:1035A000584959A000F0F4FFA0680026002828D947
:1035B00035460C204543E0686A4641591771504A28
:1035C00000920FA8002301AA00F00CFB6A461079B4
:1035D000002812D1E06829188868002802D14868BC
:1035E000FCF729FE0021C9430791E16803466A18E8
:1035F0005268495902A8FFF7C1FCA068761C8642B0
:10360000D6D30AA8029004203AA501904A4E284633
:10361000FCF711FEC01C810889003046283100F0FB
:1036200057FD401C28D06A461774354A0092294637
:103630004248002304AA00F0D5FA6A46167C002E00
:1036400006D000223D492846FFF7F8FD00280ED19C
:1036500029463948019B029AFFF790FC002E06D0BC
:10366000002804D1012235492846FFF7E7FD60789C
:10367000002801D000F072FB0120207009981DB0D5
:10368000F0BD00009F0500002E2E5C5254455F43A4
:103690006F72655C5254455F4B5644422E63000086
:1036A00028000020007800085B4B5644425D000073
:1036B0002531307320202020454E562073746172CE
:1036C0007420616464726573732069732030782597
:1036D0003038582C2073697A65206973202564205E
:1036E00062797465732E0D0A00000000352F000802
:1036F000A12E00085F5F7665725F6E756D5F5F007B
:10370000113D0008AC3900082531307320202020FD
:103710005570646174652074686520454E56206656
:10372000726F6D2076657273696F6E2025642074E8
:103730006F2025642E0D0A00F8010020C40100202E
:10374000F0B53C4D0024E86891B0002803D13A4917
:103750003AA0FDF7DDFFA868002803D13D4937A056
:10376000FDF7D6FF00F038F9324801214568C9025B
:103770006818854239D203A84F1009900026F643F5
:10378000A80504D04B21C9003348FDF7C1FF3946D5
:10379000284600F023F900281DD1FF222421684685
:1037A000FCF72AFD68460C21FF22FCF725FD0024CA
:1037B000684604700C21FF220998FCF71DFD68463D
:1037C000047326480690601E0890079624226946D6
:1037D000284600F04FF9040026D11648ED1941683B
:1037E0000120C00208188542C8D3124D0026A868DF
:1037F000002819D90C2037464743E86838188368F1
:10380000002B03D14068FCF716FD03460020C0439F
:103810000F90E86839184A68C1590AA8FFF7AEFB4B
:10382000A868761C8642E5D300F0D7F8204611B090
:10383000F0BD000028000020820400002E2E5C5203
:1038400054455F436F72655C5254455F4B5644422A
:103850002E63000083040000B03400084546343075
:10386000F0B505462C482B4E0078802400278FB0F9
:1038700000283DD000F0B0F86A461771274A009240
:10388000294602A8002301AA00F0ACF96A46107983
:10389000002832D00498802800D2044622463146BF
:1038A0000E9800F0D1F800F098F8002C27D0E0072F
:1038B000184AC00F0021002806D9535C203B5F2B1B
:1038C00020D2491C8142F8D32146A0420CD2115C7F
:1038D00020395F2916D21118497820395F2911D271
:1038E000801C2146A042F2D30A4847540FB0F0BDD5
:1038F0000B490C4800F04CFE01E000F06EF800208F
:103900000FB0F0BD08A10A4800F042FE00200FB041
:10391000F0BD00004001002028000020113D0008FB
:10392000AC390008B43900085B4B5644425D0000D6
:10393000C44C0008F0B506461A488FB000781F4600
:1039400015460C4600281AD000F046F831462646A7
:1039500000246A461471144A009202A8234601AA60
:1039600000F040F96A461079002815D0002F01D0E8
:10397000049838600498A84208D2044607E00BA1D6
:103980000CA000F005FE00200FB0F0BD2C46224632
:1039900031460E9800F058F800F01FF820460FB09E
:1039A000F0BD000028000020113D00085B4B56448C
:1039B000425D00002531307320202020454E5620E6
:1039C00069736E277420696E697469616C697A65C0
:1039D000204F4B2E0D0A000070477047F8B5064681
:1039E00000270C46800503D0272111A0FDF790FE8B
:1039F000A50AA00500D06D1CFDF7B2FA3520FDF731
:103A00004BFA0024002D0ED9FDF768FA0128FBD0EF
:103A1000A0028019FDF746FA042801D0012702E030
:103A2000641CAC42F0D3FDF76DFA3846F8BD0000D7
:103A30002E2E5C5254455F4253505C4253505F46B9
:103A40006C6173682E630000F8B5064600201746C7
:103A50000C4605460090002A0AD9FDF73FFA0128D6
:103A6000FBD030782070641C6D1C761CBD42F4D3F2
:103A70000098F8BDF8B50546002017460C460090A2
:103A8000FDF76EFA3520FDF707FA0026002F13D94F
:103A9000FDF724FA0128FBD028462168FDF73AFA01
:103AA00028682168814202D00320009004E0241D90
:103AB0002D1D361DBE42EBD3FDF724FA0098F8BD4C
:103AC00070B505460C460846FCF7B5FB0246214694
:103AD000284600F001F870BDF0B506462F4883B0C7
:103AE000007815460C4600282BD0FFF775FF02948E
:103AF000002C2DD02A4C3046FCF79DFBC01C8108C1
:103B0000E81C80088900800009182046243100F054
:103B1000DFFA401C23D000236A461371224A009228
:103B20003146204801AA00F05DF86A461779002F57
:103B300017D000221B493046FFF780FB040010D04D
:103B400020E01A491A4800F023FD072003B0F0BD19
:103B5000012200213046FFF771FB044618E00624DD
:103B600016E02B4631460E48029AFFF707FA044644
:103B7000002F07D0002C05D101220A493046FFF75B
:103B80005DFB044605484078002801D000F0E6F8C7
:103B9000FFF723FF204603B0F0BD000028000020FF
:103BA000F8010020C4010020113D0008AC390008D4
:103BB000B439000810B40A4BC4001A5900290CD0BB
:103BC000081D096849080818E11849685218011DBC
:103BD0008A4200D8002010BC704710BC10467047C5
:103BE0003C000020FFB500228DB0D2434749044677
:103BF00001924868169E431C7DD00022694600F061
:103C00007DFB002864D1002E62D0684640780228EF
:103C100001D003285CD10027FF436846E762407863
:103C2000012855D0019807AD24301422294606906A
:103C3000FFF70AFF0021052304204201D208AA5CF5
:103C4000002A02D0491C401EF7D28B4204D00698AD
:103C5000E062401C02D13BE0E76239E0204600F020
:103C600097FA2046109B0F9A0E99B047002842D130
:103C700068464078012828D0E06A411C22D0012102
:103C8000019A8902511888421FD862688718B94280
:103C90001BD3002A19D006AD384614222946FFF757
:103CA000D3FE0021052204204301DB08EB5C002B3E
:103CB00002D0491C401EF7D28A4206D0E7627F1C20
:103CC000CCD105E0019F2437E5E70027FF43E762F9
:103CD0000198401C11D00398401C11D00399019801
:103CE0008902401809494A680121C90251188842CD
:103CF00001D2411C81D111B0F0BD04484068F8E701
:103D00000120019980020818ECE70000280000203B
:103D100070B504460E4615460846FCF78CFAC2B24A
:103D2000A078904200D902462078002809D0607817
:103D3000022806D1204631460C30FCF783FA0028D1
:103D400001D0002070BD0120287070BD00780028CF
:103D500002D00868401C08600020704710B58AB087
:103D60000024104800900894234608AA01210194D9
:103D700002A800F0B7FB01230B490CA0089A00F041
:103D800007FC0898012808D81848002300901A4614
:103D90001946019402A800F0A5FB154844700AB02A
:103DA00010BD00004D3D0008AC39000825313073CE
:103DB000202020205468652072656D61696E206541
:103DC0006D70747920736563746F72206973202538
:103DD000642C204743207468726573686F6C64209C
:103DE00069732025642E0D0A0000000011330008BD
:103DF0002800002082B05E20FDF770FC002801D072
:103E0000FDF7A4FBFDF7A8FCE12149020020FCF727
:103E1000D9FD1B48FDF758FB1A481BA102681DA0DD
:103E200000F0B6FBFDF728F9FDF7FEFC00221F4964
:103E30000123019200911A461D49FDF7A1FC7D2145
:103E40006422C9000020FCF7F5FE0020FCF744FFC7
:103E50000121C802FDF74AFBFF208130FEF778F808
:103E60005020FEF77FF87F20FEF760F8FCF79AFEFF
:103E7000FCF744FFFDF71EFDFCF7C2FEFAE7000069
:103E800075170008140000205B53595354454D5DCD
:103E900000000000253130732020202052756E2054
:103EA000417420256420487A210D0A002911000858
:103EB00050C30000F0B50446A9B000200890607817
:103EC000022804D1002221461046FFF7B7F902A8C4
:103ED0000A9060680B900020C04300250990594863
:103EE00000900C950D950DAB0CAA294601950A98EA
:103EF00000F0F8FA0D980126534F002807D00097DC
:103F000009AB0BAA022101960A9800F0EBFA0C9873
:103F1000002817D00999491C14D1012803D84B480F
:103F20004078002808D0009709AB0BAA0121019620
:103F30000A9800F0D7FA05E0454946A000F028FBB2
:103F40004248467009981290401C28D009950A955D
:103F50000B950C950D950E950F9510951195214685
:103F6000A2780C3109A81391FCF758F96A4615712B
:103F7000464A009209A91BA8002301AAFFF732FEB6
:103F80006A461079002854D10123062216A96668D2
:103F9000129800F021FB0025143E03D11EE00620FC
:103FA00029B0F0BD28462030B04201D2202700E0E1
:103FB000771BF81C82082846E16A14300818920022
:103FC0000AA9FFF741FD12983A4640190AA9143090
:103FD000FFF750FDED190890B542E3D30223062206
:103FE00016A9129800F0F8FA6946497A6068012922
:103FF00002D0022907D012E00223042209A9039863
:1040000000F0EAFA0BE00699442902D3081A442882
:1040100005D20323042209A9039800F0DDFAE06A1F
:10402000129901910090A27819A11BA0139B00F096
:10403000AFFA012221460020FFF700F9089829B0C5
:10404000F0BD00006D450008712E0008280000201A
:10405000AC39000825313073202020205472696764
:10406000676572206120474320636865636B206148
:104070006674657220616C6C6F6320454E562066D5
:1040800061696C65642E0D0A00000000113D000896
:104090005B4B5644425D00002531307320202020C8
:1040A0004D6F7665642074686520454E562028253E
:1040B0002E2A73292066726F6D203078253038588B
:1040C00020746F203078253038582E0D0A000000FB
:1040D000F0B5002789B00D4606463C460020C04397
:1040E00007940290059424480090049507AB05AA14
:1040F00000210194304600F0F5F90798002809D016
:1041000001211E480191009002AB04AA0221304611
:1041100000F0E8F90598002819D00299491C16D139
:10412000012803D816484078002809D013480121F7
:10413000009002AB04AA0191304600F0D3F906E0EA
:104140001049114800F024FA0D49012048700298E6
:10415000411C0ED10A49497800290AD0002F08D104
:104160002A460849094800F013FAFFF7F7FD01272E
:10417000B4E709B0F0BD00006D450008712E0008DD
:1041800028000020AC390008544000081C4C0008EE
:10419000F0B595B00446002009900A9024226946A3
:1041A000E06AFFF751FC002105236A46042045011F
:1041B000ED08555D002D02D0491C401EF7D2581A5B
:1041C000C1B2617005986060421C03D00122D20226
:1041D000904214D92420606005290BD063702FA170
:1041E00030A0E26A00F0D4F9052306226946E06AAD
:1041F00000F0F2F900202070022015B0F0BD374920
:1042000040183749884204D2FF21453135A0FDF7D7
:104210007FFA676800251C3F19D028462030B84235
:1042200001D2202600E07E1BF01C82082846E16AAD
:104230001C30081892000CA9FFF706FC32460CA9A6
:104240000998FCF783FFAD190990BD42E5D30699A3
:104250000998814205D00020207002200A9015B0F4
:10426000F0BD012020706846007FE56AC01C82080E
:104270002146243592000C312846FFF7E5FB6846BD
:10428000007FC01C80088000401920630898A0604F
:104290006846007FA0700A9815B0F0BD5B4B56448D
:1042A000425D000025313073202020204572726F5E
:1042B000723A2054686520454E56204030782530AB
:1042C0003858206C656E6774682068617320616E71
:1042D000206572726F722E0D0A00000023FCFFFF32
:1042E000230400002E2E5C5254455F436F72655CC0
:1042F0005254455F4B5644422E630000F7B50546C5
:10430000A2B0002018900C46A80504D0FF216C3103
:104310005DA0FDF7FDF9002C04D1FF216D315AA0FD
:10432000FDF7F6F924220DA92846FFF78DFB6560FD
:1043300013985B49A060884204D0002020700720B9
:1043400025B0F0BD012020701498E0600020032308
:104350000DAA02214E01F608965D002E02D0401CE7
:10436000491EF7D2181AC3B2002003260221637037
:104370000C324F01FF08D75D002F02D0401C491EB0
:10438000F7D2301AA0702498002876D02435002067
:1043900065612061F7208000012B02D0022B02D042
:1043A0006BE0206169E00027FF4320610B97607894
:1043B000012862D065681CAE243514223146284697
:1043C000FFF742FB0021052204204301DB08F35CD8
:1043D000002B02D0491C401EF7D28A4203D00B9515
:1043E0006D1C02D149E00B9747E06846FFF7D0FE0D
:1043F0006846007800280FD16846407801280BD025
:10440000052809D027A129A00B9A00F0C1F80020A7
:1044100020610220189030E06069019940186061C5
:1044200021690198081A206160780128DBD00B9877
:10443000401C25D0012062680B998002101881422F
:10444000D1D8019A8E18B042CDD3002ACBD01CAD62
:10445000142229463046FFF7F7FA002105220420EE
:104460004301DB08EB5C002B02D0491C401EF7D255
:104470008A42B8D00B96761CB7D1189825B0F0BDFB
:1044800066682436E3E700002E2E5C5254455F43F5
:104490006F72655C5254455F4B5644422E63000078
:1044A000454634305B4B5644425D00002531307345
:1044B000202020204572726F723A20546865204592
:1044C0004E56202840307825303858292043524312
:1044D000333220636865636B206661696C656421B3
:1044E0000D0A0000FFB581B004460D460020C04310
:1044F0000B9F0A9E1C49606048680090401C2AD0AF
:10450000002221460098FFF7F9FE002D02D06078C6
:10451000A8420ED1002F04D03A4621460098FFF75A
:10452000EDFE002E05D02046049A0399B0470028DE
:1045300011D16068411C10D0E1684A1C10D089027A
:10454000401809494A680121C9025118884202D21B
:104550000090401CD4D105B0F0BD03484068F7E797
:1045600001218902ECE70000280000200378002BDD
:104570000CD04078012802D0022804D006E0086858
:10458000401C086002E01068401C1060002070476A
:104590000FB400B583B005A800900022D24301A952
:1045A0000348049BFEF724F903B008BC04B0184785
:1045B000692700080FB408B504AA0092002201463A
:1045C000D2430448039BFEF713F901B008BC04B0C2
:1045D000184700005F270008F8B516461D460C4630
:1045E0000746B34203D3EC210FA0FDF791F8002C4E
:1045F00003D1ED210CA0FDF78BF870011938C1082B
:10460000FF222046FBF7F8FD002D0BD0A80000226A
:10461000001F2254411C05D0211838180422FFF72E
:1046200029FAF8BD0020F8BD2E2E5C5254455F4398
:104630006F72655C5254455F4B5644422E630000D6
:1046400000000000963007772C610EEEBA510999F0
:1046500019C46D078FF46A7035A563E9A395649E4C
:104660003288DB0EA4B8DC791EE9D5E088D9D29770
:104670002B4CB609BD7CB17E072DB8E7911DBF90CC
:104680006410B71DF220B06A4871B9F3DE41BE84F0
:104690007DD4DA1AEBE4DD6D51B5D4F4C785D3834C
:1046A00056986C13C0A86B647AF962FDECC9658AF0
:1046B0004F5C0114D96C0663633D0FFAF50D088D4C
:1046C000C8206E3B5E10694CE44160D5727167A2F0
:1046D000D1E4033C47D4044BFD850DD26BB50AA54C
:1046E000FAA8B5356C98B242D6C9BBDB40F9BCAC70
:1046F000E36CD832755CDF45CF0DD6DC593DD1ABCC
:10470000AC30D9263A00DE518051D7C81661D0BFEF
:10471000B5F4B42123C4B3569995BACF0FA5BDB84B
:104720009EB802280888055FB2D90CC624E90BB1EF
:10473000877C6F2F114C6858AB1D61C13D2D66B64B
:104740009041DC760671DB01BC20D2982A10D5EFAF
:104750008985B1711FB5B606A5E4BF9F33D4B8E80B
:10476000A2C9077834F9000F8EA8099618980EE1AF
:10477000BB0D6A7F2D3D6D08976C6491015C63E60B
:10478000F4516B6B62616C1CD83065854E0062F22F
:10479000ED95066C7BA5011BC1F4088257C40FF58B
:1047A000C6D9B06550E9B712EAB8BE8B7C88B9FCAF
:1047B000DF1DDD62492DDA15F37CD38C654CD4FB0B
:1047C0005861B24DCE51B53A7400BCA3E230BBD4AF
:1047D00041A5DF4AD795D83D6DC4D1A4FBF4D6D30B
:1047E0006AE96943FCD96E34468867ADD0B860DAAF
:1047F000732D0444E51D03335F4C0AAAC97C0DDD0B
:104800003C710550AA41022710100BBE86200CC92E
:1048100025B56857B3856F2009D466B99FE461CE8A
:104820000EF9DE5E98C9D9292298D0B0B4A8D7C7AE
:10483000173DB359810DB42E3B5CBDB7AD6CBAC00A
:104840002083B8EDB6B3BF9A0CE2B6039AD2B17426
:104850003947D5EAAF77D29D1526DB048316DC7382
:10486000120B63E3843B64943E6A6D0DA85A6A7A26
:104870000BCF0EE49DFF099327AE000AB19E077D82
:1048800044930FF0D2A3088768F2011EFEC20669A6
:104890005D5762F7CB67658071366C19E7066B6E02
:1048A000761BD4FEE02BD3895A7ADA10CC4ADD6726
:1048B0006FDFB9F9F9EFBE8E43BEB717D58EB06082
:1048C000E8A3D6D67E93D1A1C4C2D83852F2DF4F26
:1048D000F167BBD16757BCA6DD06B53F4B36B24882
:1048E000DA2B0DD84C1B0AAFF64A0336607A044126
:1048F000C3EF60DF55DF67A8EF8E6E3179BE694682
:104900008CB361CB1A8366BCA0D26F2536E26852A5
:1049100095770CCC03470BBBB91602222F26055501
:10492000BE3BBAC5280BBDB2925AB42B046AB35C25
:10493000A7FFD7C231CFD0B58B9ED92C1DAEDE5B81
:10494000B0C2649B26F263EC9CA36A750A936D0265
:10495000A906099C3F360EEB8567077213570005C1
:10496000824ABF95147AB8E2AE2BB17B381BB60CE5
:104970009B8ED2920DBED5E5B7EFDC7C21DFDB0B41
:10498000D4D2D38642E2D4F1F8B3DD686E83DA1F65
:10499000CD16BE815B26B9F6E177B06F7747B718C1
:1049A000E65A0888706A0FFFCA3B06665C0B011165
:1049B000FF9E658F69AE62F8D3FF6B6145CF6C16C1
:1049C00078E20AA0EED20DD75483044EC2B3033965
:1049D000612667A7F71660D04D476949DB776E3EC1
:1049E0004A6AD1AEDC5AD6D9660BDF40F03BD837E5
:1049F00053AEBCA9C59EBBDE7FCFB247E9FFB53041
:104A00001CF2BDBD8AC2BACA3093B353A6A3B42464
:104A10000536D0BA9306D7CD2957DE54BF67D923C0
:104A20002E7A66B3B84A61C4021B685D942B6F2A64
:104A300037BE0BB4A18E0CC31BDF055A8DEF022DC0
:104A4000000000000000F03F0000000000002440D3
:104A500000000000000059400000000000408F40AE
:104A6000000000000088C34000000000006AF84019
:104A70000000000080842E4100000000D01263413D
:104A80000000000084D797410000000065CDCD41B3
:104A9000384D0008104D000800000000444D00088B
:104AA000144D0008000000004C4D0008144D000893
:104AB00000000000544D0008144D000800000000E4
:104AC0005C4D0008144D000800000000184D00085F
:104AD0000C4D000800000000204D00080C4D00089F
:104AE00000000000284D00080C4D000800000000E8
:104AF000304D00080C4D0008000000000040404010
:104B000040404040404041414141414040404040A0
:104B1000404040404040404040404040400502024C
:104B2000020202020202020202020202022020200B
:104B30002020202020202002020202020202909067
:104B40009090909010101010101010101010101065
:104B500010101010101010100202020202028888B9
:104B600088888888080808080808080808080808C5
:104B700008080808080808080202020240000000AD
:104B8000FD4A00082531307320202020466F756EC5
:104B90006420616E20454E562028252E2A73292038
:104BA000776869636820686173206368616E676510
:104BB000642076616C7565206661696C65642E2081
:104BC0004E6F772077696C6C207265636F766572C3
:104BD000792069742E0D0A002531307320202020A1
:104BE0005761726E696E673A20536563746F722005
:104BF00068656164657220636865636B20666169DE
:104C00006C65642E2053657420697420746F206471
:104C1000656661756C742E0D0A0000005761726E36
:104C2000696E673A20416C6C6F6320616E20454E5F
:104C300056202873697A6520256429206661696C8D
:104C40006564207768656E206E657720454E562E28
:104C5000204E6F772077696C6C204743207468651D
:104C60006E2072657472792E0D0A00002531307342
:104C7000202020205761726E696E673A204D6F7652
:104C8000656420616E20454E56202873697A652040
:104C9000256429206661696C6564207768656E20EB
:104CA0007265636F766572792E204E6F7720776913
:104CB0006C6C204743207468656E2072657472794D
:104CC0002E0D0A0025313073202020205761726E8E
:104CD000696E673A2054686520454E562076616CAF
:104CE00075652069736E277420737472696E672E00
:104CF00020436F756C64206E6F742062652072654E
:104D00007475726E65640D0A000000003130300069
:104D100030000000310000006368317065720000EF
:104D200063683270657200006368337065720000FA
:104D30006368347065720000626F6F745F74696DD0
:104D4000657300006368316F757400006368326FCB
:104D5000757400006368336F757400006368346FA6
:104D600075740000844D0008000000204001000020
:104D70006C090008D84D000840010020D00C00004C
:104D8000C81F000842642D010203040445060708F9
:104D900009846CDC02A9170129343801402548092F
:104DA0000A0112022A040512302C0240400B014471
:104DB00012044A48A1091150791C79C349C86112EB
:104DC000480A10081C590E12480A10101C6A031CCD
:084DD0000A10801C41000000E4
:04000005080000B53A
:00000001FF
